{"abi":[{"type":"function","name":"BASE_CARRY_RATE_PER_BLOCK","inputs":[],"outputs":[{"name":"","type":"int256","internalType":"int256"}],"stateMutability":"view"},{"type":"function","name":"CARRY_SENSITIVITY","inputs":[],"outputs":[{"name":"","type":"int256","internalType":"int256"}],"stateMutability":"view"},{"type":"function","name":"PRECISION","inputs":[],"outputs":[{"name":"","type":"uint256","internalType":"uint256"}],"stateMutability":"view"},{"type":"function","name":"calculateCarryPnl","inputs":[{"name":"market","type":"address","internalType":"contract PerpMarket"},{"name":"isLong","type":"bool","internalType":"bool"},{"name":"notional","type":"uint256","internalType":"uint256"},{"name":"carrySnapshot","type":"int256","internalType":"int256"}],"outputs":[{"name":"carryPnl","type":"int256","internalType":"int256"}],"stateMutability":"view"},{"type":"function","name":"calculateUpdatedCarry","inputs":[{"name":"market","type":"address","internalType":"contract PerpMarket"}],"outputs":[{"name":"newCarryIndex","type":"int256","internalType":"int256"},{"name":"carryPerBlock","type":"int256","internalType":"int256"}],"stateMutability":"view"},{"type":"function","name":"getCurrentCarryIndex","inputs":[{"name":"market","type":"address","internalType":"contract PerpMarket"}],"outputs":[{"name":"","type":"int256","internalType":"int256"}],"stateMutability":"view"},{"type":"event","name":"CarryUpdated","inputs":[{"name":"blockNumber","type":"uint256","indexed":true,"internalType":"uint256"},{"name":"cumulativeCarryIndex","type":"int256","indexed":false,"internalType":"int256"},{"name":"carryPerBlock","type":"int256","indexed":false,"internalType":"int256"},{"name":"longOI","type":"uint256","indexed":false,"internalType":"uint256"},{"name":"shortOI","type":"uint256","indexed":false,"internalType":"uint256"}],"anonymous":false}],"bytecode":{"object":"0x6080806040523461001657610785908161001b8239f35b5f80fdfe60806040908082526004361015610014575f80fd5b5f3560e01c908163056d966c146102fd5750806326bd5b9c14610230578063aaf5eb68146101f0578063c4273832146101f0578063cb5fdf2f146100af5763e98c11fa14610060575f80fd5b346100ab5760207ffffffffffffffffffffffffffffffffffffffffffffffffffffffffffffffffc3601126100ab5761009f61009a610339565b61044d565b82519182526020820152f35b5f80fd5b50346100ab5760807ffffffffffffffffffffffffffffffffffffffffffffffffffffffffffffffffc3601126100ab576100e7610339565b9060243580151581036100ab57602073ffffffffffffffffffffffffffffffffffffffff9360048451809681937f77fac304000000000000000000000000000000000000000000000000000000008352165afa9283156101e6575f936101b0575b5061019e670de0b6b3a76400009161016560209560643590610435565b90156101a6576101997fffffffffffffffffffffffffffffffffffffffffffffffffffffffffffffffff5b6044359061035c565b61035c565b059051908152f35b6101996001610190565b92506020833d6020116101de575b816101cb602093836103c7565b810103126100ab5791519161019e610148565b3d91506101be565b82513d5f823e3d90fd5b50346100ab575f7ffffffffffffffffffffffffffffffffffffffffffffffffffffffffffffffffc3601126100ab5760209051670de0b6b3a76400008152f35b50346100ab57602090817ffffffffffffffffffffffffffffffffffffffffffffffffffffffffffffffffc3601126100ab576004908273ffffffffffffffffffffffffffffffffffffffff610283610339565b168251938480927f77fac3040000000000000000000000000000000000000000000000000000000082525afa9182156102f3575f926102c4575b5051908152f35b9091508281813d83116102ec575b6102dc81836103c7565b810103126100ab5751905f6102bd565b503d6102d2565b50513d5f823e3d90fd5b346100ab575f7ffffffffffffffffffffffffffffffffffffffffffffffffffffffffffffffffc3601126100ab5780655af3107a400060209252f35b6004359073ffffffffffffffffffffffffffffffffffffffff821682036100ab57565b81810292915f82127f800000000000000000000000000000000000000000000000000000000000000082141661039a57818405149015171561039a57565b7f4e487b71000000000000000000000000000000000000000000000000000000005f52601160045260245ffd5b90601f7fffffffffffffffffffffffffffffffffffffffffffffffffffffffffffffffe0910116810190811067ffffffffffffffff82111761040857604052565b7f4e487b71000000000000000000000000000000000000000000000000000000005f52604160045260245ffd5b81810392915f13801582851316918412161761039a57565b73ffffffffffffffffffffffffffffffffffffffff1660408051917f97fb7289000000000000000000000000000000000000000000000000000000008352602060049381818681865afa908115610745575f91610718575b508351917ff67908b500000000000000000000000000000000000000000000000000000000835280838781875afa92831561070e575f936106df575b50828201938483116106b357908087928751938480927f77fac3040000000000000000000000000000000000000000000000000000000082525afa9586156106aa57505f9561067a575b50508215610670579061053d91610435565b670de0b6b3a764000090818102918183051490151715610644577fffffffffffffffffffffffffffffffffffffffffffffffffffffffffffffffff82147f800000000000000000000000000000000000000000000000000000000000000082141661064457056d04ee2d6d415b85acef81000000009080820291820503610618576ec097ce7bc90715b34b9f1000000000900591828201915f84841291129080158216911516176105ec575091565b6011907f4e487b71000000000000000000000000000000000000000000000000000000005f525260245ffd5b6011837f4e487b71000000000000000000000000000000000000000000000000000000005f525260245ffd5b6011847f4e487b71000000000000000000000000000000000000000000000000000000005f525260245ffd5b5050509050905f90565b9080929550813d83116106a3575b61069281836103c7565b810103126100ab5751925f8061052b565b503d610688565b513d5f823e3d90fd5b6011877f4e487b71000000000000000000000000000000000000000000000000000000005f525260245ffd5b9080935081813d8311610707575b6106f781836103c7565b810103126100ab5751915f6104e1565b503d6106ed565b85513d5f823e3d90fd5b90508181813d831161073e575b61072f81836103c7565b810103126100ab57515f6104a5565b503d610725565b84513d5f823e3d90fdfea264697066735822122073dd1b4e4cd3412fdbdfcfd1692ee313f0fa618cf877cc738984d8e0f14a6c3764736f6c63430008170033","linkReferences":{}},"methodIdentifiers":{"BASE_CARRY_RATE_PER_BLOCK()":"056d966c","CARRY_SENSITIVITY()":"c4273832","PRECISION()":"aaf5eb68","calculateCarryPnl(address,bool,uint256,int256)":"cb5fdf2f","calculateUpdatedCarry(address)":"e98c11fa","getCurrentCarryIndex(address)":"26bd5b9c"},"id":33}