{"abi":[{"type":"function","name":"EPSILON","inputs":[],"outputs":[{"name":"","type":"uint256","internalType":"uint256"}],"stateMutability":"view"},{"type":"function","name":"LIQUIDATION_FEE_RATIO","inputs":[],"outputs":[{"name":"","type":"uint256","internalType":"uint256"}],"stateMutability":"view"},{"type":"function","name":"PRECISION","inputs":[],"outputs":[{"name":"","type":"uint256","internalType":"uint256"}],"stateMutability":"view"},{"type":"function","name":"calculateLiquidationFee","inputs":[{"name":"positionManager","type":"address","internalType":"contract PositionManager"},{"name":"market","type":"address","internalType":"contract PerpMarket"},{"name":"positionId","type":"uint256","internalType":"uint256"}],"outputs":[{"name":"liqFee","type":"uint256","internalType":"uint256"}],"stateMutability":"view"},{"type":"function","name":"getLiquidationInfo","inputs":[{"name":"positionManager","type":"address","internalType":"contract PositionManager"},{"name":"market","type":"address","internalType":"contract PerpMarket"},{"name":"positionId","type":"uint256","internalType":"uint256"}],"outputs":[{"name":"isLiq","type":"bool","internalType":"bool"},{"name":"currentLoss","type":"uint256","internalType":"uint256"},{"name":"allowedLoss","type":"uint256","internalType":"uint256"},{"name":"equity","type":"int256","internalType":"int256"},{"name":"leverage","type":"uint256","internalType":"uint256"}],"stateMutability":"view"},{"type":"function","name":"isLiquidatable","inputs":[{"name":"positionManager","type":"address","internalType":"contract PositionManager"},{"name":"market","type":"address","internalType":"contract PerpMarket"},{"name":"positionId","type":"uint256","internalType":"uint256"}],"outputs":[{"name":"","type":"bool","internalType":"bool"}],"stateMutability":"view"},{"type":"event","name":"PositionLiquidated","inputs":[{"name":"positionId","type":"uint256","indexed":true,"internalType":"uint256"},{"name":"user","type":"address","indexed":true,"internalType":"address"},{"name":"liquidator","type":"address","indexed":true,"internalType":"address"},{"name":"avgClosePrice","type":"uint256","indexed":false,"internalType":"uint256"},{"name":"totalPnl","type":"int256","indexed":false,"internalType":"int256"},{"name":"equity","type":"int256","indexed":false,"internalType":"int256"},{"name":"liqFee","type":"uint256","indexed":false,"internalType":"uint256"},{"name":"timestamp","type":"uint256","indexed":false,"internalType":"uint256"}],"anonymous":false},{"type":"error","name":"PositionNotLiquidatable","inputs":[]},{"type":"error","name":"PositionNotOpen","inputs":[]}],"bytecode":{"object":"0x6080806040523461001657610d4e908161001b8239f35b5f80fdfe60806040908082526004361015610014575f80fd5b5f3560e01c90816356cdf8231461033057508063a02fd4ae1461030c578063a26a24c9146102d2578063aaf5eb6814610292578063d12c952b146102555763e574ede914610060575f80fd5b34610251578061006f366103a4565b73ffffffffffffffffffffffffffffffffffffffff93929380948451927feb02c301000000000000000000000000000000000000000000000000000000008452600484015282602481610160948594165afa8015610247576024926060925f9261021a575b505080850151156101b4570151835194859384927f972fcff30000000000000000000000000000000000000000000000000000000084526004840152165afa9081156101aa575f9161017c575b505b6611c37937e080009081810291818304149015171561014f57670de0b6b3a76400006020925191048152f35b7f4e487b71000000000000000000000000000000000000000000000000000000005f52601160045260245ffd5b61019c9150823d84116101a3575b6101948183610404565b810190610d02565b505f610121565b503d61018a565b82513d5f823e3d90fd5b0151835194859384927fedbae33a0000000000000000000000000000000000000000000000000000000084526004840152165afa9081156101aa575f916101fc575b50610123565b6102139150823d84116101a3576101948183610404565b505f6101f6565b6102399250803d10610240575b6102318183610404565b81019061047f565b5f806100d4565b503d610227565b84513d5f823e3d90fd5b5f80fd5b5034610251575f7ffffffffffffffffffffffffffffffffffffffffffffffffffffffffffffffffc360112610251576020905164e8d4a510008152f35b5034610251575f7ffffffffffffffffffffffffffffffffffffffffffffffffffffffffffffffffc3601126102515760209051670de0b6b3a76400008152f35b50346102515760a0906102ed6102e7366103a4565b916109b3565b9394909281519515158652602086015284015260608301526080820152f35b503461025157602090610327610321366103a4565b9161059d565b90519015158152f35b34610251575f7ffffffffffffffffffffffffffffffffffffffffffffffffffffffffffffffffc36011261025157806611c37937e0800060209252f35b8115610377570490565b7f4e487b71000000000000000000000000000000000000000000000000000000005f52601260045260245ffd5b7ffffffffffffffffffffffffffffffffffffffffffffffffffffffffffffffffc60609101126102515773ffffffffffffffffffffffffffffffffffffffff90600435828116810361025157916024359081168103610251579060443590565b90601f7fffffffffffffffffffffffffffffffffffffffffffffffffffffffffffffffe0910116810190811067ffffffffffffffff82111761044557604052565b7f4e487b71000000000000000000000000000000000000000000000000000000005f52604160045260245ffd5b5190811515820361025157565b809161016092839103126102515760405191820182811067ffffffffffffffff8211176104455760405280518252602081015173ffffffffffffffffffffffffffffffffffffffff811681036102515760208301526104e060408201610472565b6040830152606081015160608301526080810151608083015260a081015160a083015260c081015160c083015260e081015160e083015261010080820151908301526101208082015190600382101561025157830152610140809101519082015290565b91908260c09103126102515781519160208101519160408201519160608101519160a0608083015192015190565b8181029291811591840414171561014f57565b81810392915f13801582851316918412161761014f57565b909173ffffffffffffffffffffffffffffffffffffffff809216906040928351927fa32fce3b000000000000000000000000000000000000000000000000000000008452600495838786015260209060249582818881875afa9081156109a9575f91610974575b5015610910578651937feb02c30100000000000000000000000000000000000000000000000000000000855285898601526101609485818981885afa95861561094b575f96610955575b50506101008501519116908751907fe12ed13c00000000000000000000000000000000000000000000000000000000825283828b81865afa91821561094b575f9261091c575b5014610910578651947fbc5b83d20000000000000000000000000000000000000000000000000000000086528886015260c0858781865afa9485156108cd57908895949392915f956108d7575b5081908851968780927f604096320000000000000000000000000000000000000000000000000000000082525afa80156108cd575f9061089e575b6107379550670de0b6b3a76400009586916060860151610572565b0492858402938085048714901517156108735761075b60c08392019485519061036d565b878951809581937fdb24e2a20000000000000000000000000000000000000000000000000000000083528d8301525afa96871561086a57505f9661083a575b5050519080821315610832576107b09082610585565b935b82039082821161080757906107c691610572565b049264e8d4a5100084018094116107dd5750501190565b6011907f4e487b71000000000000000000000000000000000000000000000000000000005f52525ffd5b836011877f4e487b71000000000000000000000000000000000000000000000000000000005f52525ffd5b505f936107b2565b9080929650813d8311610863575b6108528183610404565b810103126102515751935f8061079a565b503d610848565b513d5f823e3d90fd5b8660118a7f4e487b71000000000000000000000000000000000000000000000000000000005f52525ffd5b508085813d83116108c6575b6108b48183610404565b8101031261025157610737945161071c565b503d6108aa565b87513d5f823e3d90fd5b829195506108fc9060c03d60c011610909575b6108f48183610404565b810190610544565b94505050505094906106e1565b503d6108ea565b50505050505050505f90565b9091508381813d8311610944575b6109348183610404565b810103126102515751905f610694565b503d61092a565b89513d5f823e3d90fd5b61096c929650803d10610240576102318183610404565b935f8061064e565b90508281813d83116109a2575b61098b8183610404565b810103126102515761099c90610472565b5f610604565b503d610981565b88513d5f823e3d90fd5b91905f9273ffffffffffffffffffffffffffffffffffffffff809116906040908151947fa32fce3b0000000000000000000000000000000000000000000000000000000086526004928184880152602060249781818a818a5afa908115610c68575f91610ccd575b5015610cb8578151907feb02c30100000000000000000000000000000000000000000000000000000000825283868301526101609182818b818b5afa928315610247575f93610c99575b50508251937fbc5b83d20000000000000000000000000000000000000000000000000000000085528685015260c0848a818a5afa938415610c68575f94610c72575b50808498878551809881937f60409632000000000000000000000000000000000000000000000000000000008352165afa8015610c68575f90610c39575b610b009550670de0b6b3a76400009586916060850151610572565b049185830292808404871490151715610c0e579080610b2660c08c94019485519061036d565b988551938480927fdb24e2a20000000000000000000000000000000000000000000000000000000082528c8c8301525afa93841561086a57505f93610bde575b50505191808313610bcb575b50820390828211610ba05790610b8791610572565b049364e8d4a510008501918286116107dd575050841194565b866011857f4e487b71000000000000000000000000000000000000000000000000000000005f52525ffd5b610bd791985082610585565b965f610b72565b9080929350813d8311610c07575b610bf68183610404565b810103126102515751905f80610b66565b503d610bec565b896011887f4e487b71000000000000000000000000000000000000000000000000000000005f52525ffd5b508085813d8311610c61575b610c4f8183610404565b8101031261025157610b009451610ae5565b503d610c45565b83513d5f823e3d90fd5b610c8c91945060c03d60c011610909576108f48183610404565b945050505050925f610aa7565b610cb0929350803d10610240576102318183610404565b905f80610a65565b5050505050505050505f905f905f905f905f90565b90508181813d8311610cfb575b610ce48183610404565b8101031261025157610cf590610472565b5f610a1b565b503d610cda565b919082604091031261025157602082519201519056fea26469706673582212201d7e6cacefab623e87e6baa58471387b643ceea2f2cbf3c51db8a3ca54d8485064736f6c63430008170033","linkReferences":{}},"methodIdentifiers":{"EPSILON()":"d12c952b","LIQUIDATION_FEE_RATIO()":"56cdf823","PRECISION()":"aaf5eb68","calculateLiquidationFee(address,address,uint256)":"e574ede9","getLiquidationInfo(address,address,uint256)":"a26a24c9","isLiquidatable(address,address,uint256)":"a02fd4ae"},"id":34}