{"abi":[{"type":"constructor","inputs":[],"stateMutability":"nonpayable"},{"type":"function","name":"allowance","inputs":[{"name":"owner","type":"address","internalType":"address"},{"name":"spender","type":"address","internalType":"address"}],"outputs":[{"name":"","type":"uint256","internalType":"uint256"}],"stateMutability":"view"},{"type":"function","name":"approve","inputs":[{"name":"spender","type":"address","internalType":"address"},{"name":"value","type":"uint256","internalType":"uint256"}],"outputs":[{"name":"","type":"bool","internalType":"bool"}],"stateMutability":"nonpayable"},{"type":"function","name":"balanceOf","inputs":[{"name":"account","type":"address","internalType":"address"}],"outputs":[{"name":"","type":"uint256","internalType":"uint256"}],"stateMutability":"view"},{"type":"function","name":"decimals","inputs":[],"outputs":[{"name":"","type":"uint8","internalType":"uint8"}],"stateMutability":"pure"},{"type":"function","name":"faucet","inputs":[],"outputs":[],"stateMutability":"nonpayable"},{"type":"function","name":"mint","inputs":[{"name":"to","type":"address","internalType":"address"},{"name":"amount","type":"uint256","internalType":"uint256"}],"outputs":[],"stateMutability":"nonpayable"},{"type":"function","name":"name","inputs":[],"outputs":[{"name":"","type":"string","internalType":"string"}],"stateMutability":"view"},{"type":"function","name":"symbol","inputs":[],"outputs":[{"name":"","type":"string","internalType":"string"}],"stateMutability":"view"},{"type":"function","name":"totalSupply","inputs":[],"outputs":[{"name":"","type":"uint256","internalType":"uint256"}],"stateMutability":"view"},{"type":"function","name":"transfer","inputs":[{"name":"to","type":"address","internalType":"address"},{"name":"value","type":"uint256","internalType":"uint256"}],"outputs":[{"name":"","type":"bool","internalType":"bool"}],"stateMutability":"nonpayable"},{"type":"function","name":"transferFrom","inputs":[{"name":"from","type":"address","internalType":"address"},{"name":"to","type":"address","internalType":"address"},{"name":"value","type":"uint256","internalType":"uint256"}],"outputs":[{"name":"","type":"bool","internalType":"bool"}],"stateMutability":"nonpayable"},{"type":"event","name":"Approval","inputs":[{"name":"owner","type":"address","indexed":true,"internalType":"address"},{"name":"spender","type":"address","indexed":true,"internalType":"address"},{"name":"value","type":"uint256","indexed":false,"internalType":"uint256"}],"anonymous":false},{"type":"event","name":"Transfer","inputs":[{"name":"from","type":"address","indexed":true,"internalType":"address"},{"name":"to","type":"address","indexed":true,"internalType":"address"},{"name":"value","type":"uint256","indexed":false,"internalType":"uint256"}],"anonymous":false},{"type":"error","name":"ERC20InsufficientAllowance","inputs":[{"name":"spender","type":"address","internalType":"address"},{"name":"allowance","type":"uint256","internalType":"uint256"},{"name":"needed","type":"uint256","internalType":"uint256"}]},{"type":"error","name":"ERC20InsufficientBalance","inputs":[{"name":"sender","type":"address","internalType":"address"},{"name":"balance","type":"uint256","internalType":"uint256"},{"name":"needed","type":"uint256","internalType":"uint256"}]},{"type":"error","name":"ERC20InvalidApprover","inputs":[{"name":"approver","type":"address","internalType":"address"}]},{"type":"error","name":"ERC20InvalidReceiver","inputs":[{"name":"receiver","type":"address","internalType":"address"}]},{"type":"error","name":"ERC20InvalidSender","inputs":[{"name":"sender","type":"address","internalType":"address"}]},{"type":"error","name":"ERC20InvalidSpender","inputs":[{"name":"spender","type":"address","internalType":"address"}]}],"bytecode":{"object":"0x6080346200039c576040906001600160401b0390808301828111828210176200038857835260098152602090684d6f636b205553444360b81b828201528351928484018481108282111762000388578552600493848152635553444360e01b84820152825182811162000375576003918254916001958684811c941680156200036a575b8885101462000357578190601f9485811162000304575b508890858311600114620002a1575f9262000295575b50505f1982861b1c191690861b1783555b8051938411620002825786548581811c9116801562000277575b8782101462000264578281116200021c575b5085918411600114620001b5579383949184925f95620001a9575b50501b925f19911b1c19161782555b3315620001935760025464e8d4a51000928382018092116200018057505f917fddf252ad1be2c89b69c2b068fc378daa952ba7f163c4a11628f55a4df523b3ef9160025533835282815284832084815401905584519384523393a351610bd59081620003a18239f35b601190634e487b7160e01b5f525260245ffd5b505f602492519163ec442f0560e01b8352820152fd5b015193505f8062000108565b9190601f19841692875f5284875f20945f5b8989838310620002045750505010620001ea575b50505050811b01825562000117565b01519060f8845f19921b161c191690555f808080620001db565b868601518955909701969485019488935001620001c7565b875f52865f208380870160051c8201928988106200025a575b0160051c019086905b8281106200024e575050620000ed565b5f81550186906200023e565b9250819262000235565b602288634e487b7160e01b5f525260245ffd5b90607f1690620000db565b604187634e487b7160e01b5f525260245ffd5b015190505f80620000b0565b90889350601f19831691875f528a5f20925f5b8c828210620002ed5750508411620002d5575b505050811b018355620000c1565b01515f1983881b60f8161c191690555f8080620002c7565b8385015186558c97909501949384019301620002b4565b909150855f52885f208580850160051c8201928b86106200034d575b918a91869594930160051c01915b8281106200033e5750506200009a565b5f81558594508a91016200032e565b9250819262000320565b602289634e487b7160e01b5f525260245ffd5b93607f169362000083565b604186634e487b7160e01b5f525260245ffd5b634e487b7160e01b5f52604160045260245ffd5b5f80fdfe6080604081815260049182361015610015575f80fd5b5f3560e01c90816306fdde031461087557508063095ea7b31461077057806318160ddd1461073457806323b872dd146105ac578063313ce5671461057357806340c10f191461049d57806370a082311461043c57806395d89b4114610243578063a9059cbb146101f5578063dd62ed3e146101805763de5f72fd14610098575f80fd5b3461017c575f7ffffffffffffffffffffffffffffffffffffffffffffffffffffffffffffffffc36011261017c57331561014d576002546402540be400928382018092116101215750600255335f525f602052805f20828154019055519081525f7fddf252ad1be2c89b69c2b068fc378daa952ba7f163c4a11628f55a4df523b3ef60203393a3005b6011907f4e487b71000000000000000000000000000000000000000000000000000000005f525260245ffd5b905f60249251917fec442f05000000000000000000000000000000000000000000000000000000008352820152fd5b5f80fd5b503461017c57807ffffffffffffffffffffffffffffffffffffffffffffffffffffffffffffffffc36011261017c576020906101ba610a1c565b6101c2610a3f565b9073ffffffffffffffffffffffffffffffffffffffff8091165f5260018452825f2091165f528252805f20549051908152f35b503461017c57807ffffffffffffffffffffffffffffffffffffffffffffffffffffffffffffffffc36011261017c5760209061023c610232610a1c565b6024359033610a62565b5160018152f35b50903461017c575f7ffffffffffffffffffffffffffffffffffffffffffffffffffffffffffffffffc36011261017c5781515f928254936001948060011c60018216968715610432575b602092838310891461040657869798838897985290815f146103ab5750600114610330575b50505003601f017fffffffffffffffffffffffffffffffffffffffffffffffffffffffffffffffe01682019267ffffffffffffffff84118385101761030457508291826103009252826109b8565b0390f35b6041907f4e487b71000000000000000000000000000000000000000000000000000000005f525260245ffd5b5f888152929493507f8a35acfbc15ff81a39ae7d344fd709f28e8600b4aa8c65c6b64bfe7fe36bd19b5b82841061039557505050907fffffffffffffffffffffffffffffffffffffffffffffffffffffffffffffffe092601f928201019181936102b2565b805488850187015287945092850192810161035a565b7fffffffffffffffffffffffffffffffffffffffffffffffffffffffffffffff0016848701525050151560051b830101905081601f7fffffffffffffffffffffffffffffffffffffffffffffffffffffffffffffffe06102b2565b6022887f4e487b71000000000000000000000000000000000000000000000000000000005f525260245ffd5b90607f169061028d565b503461017c5760207ffffffffffffffffffffffffffffffffffffffffffffffffffffffffffffffffc36011261017c5760209073ffffffffffffffffffffffffffffffffffffffff61048c610a1c565b165f525f8252805f20549051908152f35b503461017c57807ffffffffffffffffffffffffffffffffffffffffffffffffffffffffffffffffc36011261017c576104d4610a1c565b9073ffffffffffffffffffffffffffffffffffffffff6024359216928315610545576002549083820180921161012157505f927fddf252ad1be2c89b69c2b068fc378daa952ba7f163c4a11628f55a4df523b3ef9260209260025585855284835280852082815401905551908152a3005b5f60249251917fec442f05000000000000000000000000000000000000000000000000000000008352820152fd5b503461017c575f7ffffffffffffffffffffffffffffffffffffffffffffffffffffffffffffffffc36011261017c576020905160068152f35b50903461017c5760607ffffffffffffffffffffffffffffffffffffffffffffffffffffffffffffffffc36011261017c576105e5610a1c565b6105ed610a3f565b906044359273ffffffffffffffffffffffffffffffffffffffff8216805f526001602052855f20335f52602052855f2054917fffffffffffffffffffffffffffffffffffffffffffffffffffffffffffffffff8310610655575b60208761023c888888610a62565b8583106106ef5781156106c057331561069157505f9081526001602090815286822033835281529086902091859003909155829061023c610647565b6024905f8851917f94280d62000000000000000000000000000000000000000000000000000000008352820152fd5b6024905f8851917fe602df05000000000000000000000000000000000000000000000000000000008352820152fd5b86517ffb8f41b2000000000000000000000000000000000000000000000000000000008152339181019182526020820193909352604081018690528291506060010390fd5b503461017c575f7ffffffffffffffffffffffffffffffffffffffffffffffffffffffffffffffffc36011261017c576020906002549051908152f35b503461017c57807ffffffffffffffffffffffffffffffffffffffffffffffffffffffffffffffffc36011261017c576107a7610a1c565b6024359033156108465773ffffffffffffffffffffffffffffffffffffffff169081156108175760209350335f5260018452825f20825f52845280835f205582519081527f8c5be1e5ebec7d5bd14f71427d1e84f3dd0314c0f7b2291e5b200ac8c7c3b925843392a35160018152f35b6024845f8551917f94280d62000000000000000000000000000000000000000000000000000000008352820152fd5b6024845f8551917fe602df05000000000000000000000000000000000000000000000000000000008352820152fd5b8391503461017c575f7ffffffffffffffffffffffffffffffffffffffffffffffffffffffffffffffffc36011261017c575f92600354936001948060011c600182169687156109ae575b602092838310891461040657869798838897985290815f146103ab57506001146109315750505003601f017fffffffffffffffffffffffffffffffffffffffffffffffffffffffffffffffe01682019267ffffffffffffffff84118385101761030457508291826103009252826109b8565b60035f908152929493507fc2575a0e9e593c00f959f8c92f12db2869c3395a3b0502d05e2516446f71f85b5b82841061099857505050907fffffffffffffffffffffffffffffffffffffffffffffffffffffffffffffffe092601f928201019181936102b2565b805488850187015287945092850192810161095d565b90607f16906108bf565b6020808252825181830181905293925f5b858110610a08575050507fffffffffffffffffffffffffffffffffffffffffffffffffffffffffffffffe0601f845f6040809697860101520116010190565b8181018301518482016040015282016109c9565b6004359073ffffffffffffffffffffffffffffffffffffffff8216820361017c57565b6024359073ffffffffffffffffffffffffffffffffffffffff8216820361017c57565b9173ffffffffffffffffffffffffffffffffffffffff808416928315610b6f5716928315610b3f57825f525f60205260405f205490828210610ae75750817fddf252ad1be2c89b69c2b068fc378daa952ba7f163c4a11628f55a4df523b3ef92602092855f525f84520360405f2055845f5260405f20818154019055604051908152a3565b6040517fe450d38c00000000000000000000000000000000000000000000000000000000815273ffffffffffffffffffffffffffffffffffffffff919091166004820152602481019190915260448101829052606490fd5b60246040517fec442f050000000000000000000000000000000000000000000000000000000081525f6004820152fd5b60246040517f96c6fd1e0000000000000000000000000000000000000000000000000000000081525f6004820152fdfea264697066735822122054fd90da396a2278b2f4bfe379e861e0f48181f801001ca47205edf0edc5030464736f6c63430008170033","linkReferences":{}},"methodIdentifiers":{"allowance(address,address)":"dd62ed3e","approve(address,uint256)":"095ea7b3","balanceOf(address)":"70a08231","decimals()":"313ce567","faucet()":"de5f72fd","mint(address,uint256)":"40c10f19","name()":"06fdde03","symbol()":"95d89b41","totalSupply()":"18160ddd","transfer(address,uint256)":"a9059cbb","transferFrom(address,address,uint256)":"23b872dd"},"id":31}