{"abi":[{"type":"constructor","inputs":[{"name":"_liquidationEngine","type":"address","internalType":"contract LiquidationEngine"},{"name":"_fundingManager","type":"address","internalType":"contract FundingManager"}],"stateMutability":"nonpayable"},{"type":"function","name":"createMarket","inputs":[{"name":"collateralToken","type":"address","internalType":"address"},{"name":"config","type":"tuple","internalType":"struct PerpFactory.MarketConfig","components":[{"name":"baseReserve","type":"uint256","internalType":"uint256"},{"name":"quoteReserve","type":"uint256","internalType":"uint256"},{"name":"maxLeverage","type":"uint256","internalType":"uint256"}]}],"outputs":[{"name":"engineAddress","type":"address","internalType":"address"}],"stateMutability":"nonpayable"},{"type":"function","name":"fundingManager","inputs":[],"outputs":[{"name":"","type":"address","internalType":"contract FundingManager"}],"stateMutability":"view"},{"type":"function","name":"getAllMarkets","inputs":[],"outputs":[{"name":"","type":"address[]","internalType":"address[]"}],"stateMutability":"view"},{"type":"function","name":"getMarket","inputs":[{"name":"index","type":"uint256","internalType":"uint256"}],"outputs":[{"name":"","type":"address","internalType":"address"}],"stateMutability":"view"},{"type":"function","name":"getMarketCount","inputs":[],"outputs":[{"name":"","type":"uint256","internalType":"uint256"}],"stateMutability":"view"},{"type":"function","name":"isEngine","inputs":[{"name":"","type":"address","internalType":"address"}],"outputs":[{"name":"","type":"bool","internalType":"bool"}],"stateMutability":"view"},{"type":"function","name":"liquidationEngine","inputs":[],"outputs":[{"name":"","type":"address","internalType":"contract LiquidationEngine"}],"stateMutability":"view"},{"type":"function","name":"markets","inputs":[{"name":"","type":"uint256","internalType":"uint256"}],"outputs":[{"name":"","type":"address","internalType":"address"}],"stateMutability":"view"},{"type":"event","name":"MarketCreated","inputs":[{"name":"marketIndex","type":"uint256","indexed":true,"internalType":"uint256"},{"name":"engine","type":"address","indexed":true,"internalType":"address"},{"name":"market","type":"address","indexed":false,"internalType":"address"},{"name":"collateralToken","type":"address","indexed":false,"internalType":"address"}],"anonymous":false},{"type":"error","name":"InvalidLeverage","inputs":[]},{"type":"error","name":"InvalidReserves","inputs":[]}],"bytecode":{"object":"0x60c03461009357601f615ca138819003918201601f19168301916001600160401b038311848410176100975780849260409485528339810103126100935780516001600160a01b03918282168203610093576020015191821682036100935760805260a052604051615bf590816100ac82396080518181816103230152610896015260a0518181816102fb01526109020152f35b5f80fd5b634e487b7160e01b5f52604160045260245ffdfe6080604081815260049182361015610015575f80fd5b5f925f3560e01c91826304baed9e146108ba5750816344bf3c721461084c578163aec9beb7146107e5578163b0772d0b14610689578163b1283e771461062d578163ce0c877f14610181578163eb44fdd3146100b7575063fd69f3c21461007a575f80fd5b346100b357817ffffffffffffffffffffffffffffffffffffffffffffffffffffffffffffffffc3601126100b357602091549051908152f35b5080fd5b839150346100b35760207ffffffffffffffffffffffffffffffffffffffffffffffffffffffffffffffffc3601126100b357803591548210156101245760208373ffffffffffffffffffffffffffffffffffffffff61011585610949565b92905490519260031b1c168152f35b60649060208451917f08c379a0000000000000000000000000000000000000000000000000000000008352820152601460248201527f496e76616c6964206d61726b657420696e6465780000000000000000000000006044820152fd5b8383346105275760807ffffffffffffffffffffffffffffffffffffffffffffffffffffffffffffffffc360112610527576101ba610926565b9260607fffffffffffffffffffffffffffffffffffffffffffffffffffffffffffffffdc3601126105275781519367ffffffffffffffff9360608601858111878210176106015784526024908135968781526044359060209889820192808452888301916064358352159081156105f8575b506105d0575180159081156105bd575b506105955751905190865191610f7991828401928484108b8511176105355791899391859361341b853982528b8201520301905ff0801561058b5785519361182c94858101958187108a881117610560576143948239308652878173ffffffffffffffffffffffffffffffffffffffff80951697888d8201520301905ff0801561052b57875191612a308084019a848c10908c11176105355792848193898e838f9b9a99989660a0976109eb8839169a8b81520152169a8b8b820152847f0000000000000000000000000000000000000000000000000000000000000000166060820152847f00000000000000000000000000000000000000000000000000000000000000001660808201520301905ff0801561052b57811697853b156105275787517f0e830e4900000000000000000000000000000000000000000000000000000000908181528a898201525f818781838c5af1801561051d5761050a575b50813b156105065789858592838c51958694859384528d8401525af180156104fc579083916104e8575b5054680100000000000000008110156104bd578060016103e892018455610949565b819291549060031b918a831b921b19161790558681526001885285812060017fffffffffffffffffffffffffffffffffffffffffffffffffffffffffffffff008254161790558054947fffffffffffffffffffffffffffffffffffffffffffffffffffffffffffffffff860195861161049457505050838593927fe4aa324a80899358fb4a460836947a422f4df85aa94d768c738806d61d9bc9a292825191825288820152a351908152f35b6011907f4e487b7100000000000000000000000000000000000000000000000000000000835252fd5b50506041857f4e487b7100000000000000000000000000000000000000000000000000000000835252fd5b6104f1906109a9565b6100b357818a6103c6565b88513d85823e3d90fd5b8380fd5b6105159194506109a9565b5f928b61039c565b8a513d5f823e3d90fd5b5f80fd5b87513d5f823e3d90fd5b8660418a7f4e487b71000000000000000000000000000000000000000000000000000000005f52525ffd5b856041897f4e487b71000000000000000000000000000000000000000000000000000000005f52525ffd5b85513d5f823e3d90fd5b8587517f7fd13972000000000000000000000000000000000000000000000000000000008152fd5b6801a055690d9db800009150118a61023c565b8688517f7b9c8916000000000000000000000000000000000000000000000000000000008152fd5b9050158b61022c565b6041847f4e487b71000000000000000000000000000000000000000000000000000000005f525260245ffd5b9050346105275760207ffffffffffffffffffffffffffffffffffffffffffffffffffffffffffffffffc3601126105275735905f548210156105275773ffffffffffffffffffffffffffffffffffffffff610115602093610949565b8234610527575f7ffffffffffffffffffffffffffffffffffffffffffffffffffffffffffffffffc360112610527578051805f549283825282602080930180955f80527f290decd9548b62a8d60345a988386fc84ba6bc95484008f6362f93160ef3e563905f5b868282106107b8575050505003601f017fffffffffffffffffffffffffffffffffffffffffffffffffffffffffffffffe01683019467ffffffffffffffff86118487101761078c57508481528185529151818501819052849392840192915f5b82811061075f57505050500390f35b835173ffffffffffffffffffffffffffffffffffffffff1685528695509381019392810192600101610750565b6041907f4e487b71000000000000000000000000000000000000000000000000000000005f525260245ffd5b835473ffffffffffffffffffffffffffffffffffffffff16855288955090930192600192830192016106f0565b82346105275760207ffffffffffffffffffffffffffffffffffffffffffffffffffffffffffffffffc3601126105275760209073ffffffffffffffffffffffffffffffffffffffff610835610926565b165f526001825260ff815f20541690519015158152f35b8234610527575f7ffffffffffffffffffffffffffffffffffffffffffffffffffffffffffffffffc360112610527576020905173ffffffffffffffffffffffffffffffffffffffff7f0000000000000000000000000000000000000000000000000000000000000000168152f35b34610527575f7ffffffffffffffffffffffffffffffffffffffffffffffffffffffffffffffffc3601126105275760209073ffffffffffffffffffffffffffffffffffffffff7f0000000000000000000000000000000000000000000000000000000000000000168152f35b6004359073ffffffffffffffffffffffffffffffffffffffff8216820361052757565b5f5481101561097c575f80527f290decd9548b62a8d60345a988386fc84ba6bc95484008f6362f93160ef3e56301905f90565b7f4e487b71000000000000000000000000000000000000000000000000000000005f52603260045260245ffd5b67ffffffffffffffff81116109bd57604052565b7f4e487b71000000000000000000000000000000000000000000000000000000005f52604160045260245ffdfe61012034620001fe57601f62002a3038819003918201601f19168301916001600160401b03831184841017620002025780849260a094604052833981010312620001fe5780516001600160a01b03919082811690819003620001fe5760208201518381168103620001fe576040830151918483168303620001fe576060840151938585168503620001fe57608001519485168503620001fe5760017f9b779b17422d0df92223018b32b4d1fa46e071723d6817e2486d003becc55f005560805260a05260c05260e0526101009081526040516128199182620002178339608051828181610b0f01528181610cdd0152612313015260a05182818161038c015281816103eb01528181610479015281816104ad0152818161050d0152818161056b0152818161063e015281816106a9015281816108e701528181610e85015281816115a601528181611759015281816118960152818161194c0152818161199401528181611a0801528181611a8f01528181611b1e01528181611baa01528181611d6f01528181611dd3015261215f015260c05182818161024d015281816105f601528181610d98015281816116150152818161171d0152818161182701528181611e310152611eaf015260e05182818161041901528181610eae015281816118d80152612504015251818181611684015281816117a30152611c950152f35b5f80fd5b634e487b7160e01b5f52604160045260245ffdfe6080806040526004361015610012575f80fd5b5f905f3560e01c90816304baed9e146124bc5750806310b6f3be146124705780631ad8b03b1461243557806327b0bea9146123fa5780632e1a7d4d146122a7578063415f1240146116a857806344bf3c721461163957806363e6ffdd1461012f578063791b98bc146115ca57806380f556051461155b5780639b45ec9714611519578063a126d60114610d42578063aaf5eb6814610d01578063b2016bd414610c92578063b6b55f2514610acc578063b790230314610a90578063e325573114610199578063ed8ec1941461012f5763fe612feb146100ef575f80fd5b3461012c57807ffffffffffffffffffffffffffffffffffffffffffffffffffffffffffffffffc36011261012c57602060405164e8d4a510008152f35b80fd5b503461012c5760207ffffffffffffffffffffffffffffffffffffffffffffffffffffffffffffffffc36011261012c5760043573ffffffffffffffffffffffffffffffffffffffff81168091036101955781604091602093528083522054604051908152f35b5080fd5b503461012c5760607ffffffffffffffffffffffffffffffffffffffffffffffffffffffffffffffffc36011261012c5760043515156004350361012c576101de612789565b60243515610a6657604435158015610a52575b610a2857338152806020526024356040822054106109fe5773ffffffffffffffffffffffffffffffffffffffff6040517fbe515fcb000000000000000000000000000000000000000000000000000000008152602081600481857f0000000000000000000000000000000000000000000000000000000000000000165afa9081156108465783916109cc575b50670de0b6b3a764000061029382604435612528565b04670de0b6b3a7640000019081670de0b6b3a76400001161099f57670de0b6b3a764000060243502916024358304670de0b6b3a76400000361097257801561094557670de0b6b3a76400006102f8816102f0604435858804612528565b049384612528565b0433865285602052604086206103116024358254612568565b905561032182850460015461277c565b60015561034b6103438260011c61033a8160025461277c565b60025583612568565b60035461277c565b600355600435156108b157604051927f097870ae000000000000000000000000000000000000000000000000000000008452600484015260408360248189897f0000000000000000000000000000000000000000000000000000000000000000165af180156108a65786938791610881575b5092915b866040517fe98c11fa000000000000000000000000000000000000000000000000000000008152877f00000000000000000000000000000000000000000000000000000000000000001660048201526040816024818b7f0000000000000000000000000000000000000000000000000000000000000000165afa9081156107bb578291610851575b506040517fe12ed13c0000000000000000000000000000000000000000000000000000000081526020816004818c7f0000000000000000000000000000000000000000000000000000000000000000165afa908115610846578391610811575b50887f0000000000000000000000000000000000000000000000000000000000000000163b1561077c57604051917f19a65533000000000000000000000000000000000000000000000000000000008352600483015260248201528181604481838c7f0000000000000000000000000000000000000000000000000000000000000000165af180156107bb576107fd575b50604051967f77fac304000000000000000000000000000000000000000000000000000000008852602088600481847f0000000000000000000000000000000000000000000000000000000000000000165afa9788156107bb5782986107c6575b50604051977f63b64a180000000000000000000000000000000000000000000000000000000089523360048a0152600435151560248a01528560448a01528660648a015283880460848a015260a489015260208860c48185857f0000000000000000000000000000000000000000000000000000000000000000165af19788156107bb578298610780575b50670de0b6b3a764000061063a8787612528565b04817f0000000000000000000000000000000000000000000000000000000000000000163b1561077c576040517f01a828a300000000000000000000000000000000000000000000000000000000815260048035151590820152602481019190915291908290604490829084907f0000000000000000000000000000000000000000000000000000000000000000165af1801561077157610759575b5060209650604051946024358652048685015260408401526044356060840152608083015260a0820152600435151590827fb71be4456bfcc32ca9158276b8e77c79a74fed2abefc1a26fe885c548e0e106660c03393a460017f9b779b17422d0df92223018b32b4d1fa46e071723d6817e2486d003becc55f0055604051908152f35b6107638891612575565b61076d57866106d6565b8680fd5b6040513d8a823e3d90fd5b8280fd5b915096506020813d6020116107b3575b8161079d602093836125b6565b810103126107af57879051965f610626565b5f80fd5b3d9150610790565b6040513d84823e3d90fd5b915096506020813d6020116107f5575b816107e3602093836125b6565b810103126107af57879051965f61059b565b3d91506107d6565b61080690612575565b61076d57865f61053a565b9250506020823d60201161083e575b8161082d602093836125b6565b810103126107af578891515f6104a9565b3d9150610820565b6040513d85823e3d90fd5b610873915060403d60401161087a575b61086b81836125b6565b8101906126c9565b505f610449565b503d610861565b905061089d91935060403d60401161087a5761086b81836125b6565b9290925f6103bd565b6040513d88823e3d90fd5b604051927fc4b0340a000000000000000000000000000000000000000000000000000000008452600484015260408360248189897f0000000000000000000000000000000000000000000000000000000000000000165af180156108a65786938791610920575b5092916103c1565b905061093c91935060403d60401161087a5761086b81836125b6565b9290925f610918565b7f4e487b71000000000000000000000000000000000000000000000000000000005f52601260045260245ffd5b6024857f4e487b710000000000000000000000000000000000000000000000000000000081526011600452fd5b6024847f4e487b710000000000000000000000000000000000000000000000000000000081526011600452fd5b90506020813d6020116109f6575b816109e7602093836125b6565b810103126107af57515f61027d565b3d91506109da565b60046040517ff4d678b8000000000000000000000000000000000000000000000000000000008152fd5b60046040517f7fd13972000000000000000000000000000000000000000000000000000000008152fd5b506801a055690d9db80000604435116101f1565b60046040517f2c5211c6000000000000000000000000000000000000000000000000000000008152fd5b503461012c57807ffffffffffffffffffffffffffffffffffffffffffffffffffffffffffffffffc36011261012c576020600254604051908152f35b503461012c5760207ffffffffffffffffffffffffffffffffffffffffffffffffffffffffffffffffc36011261012c57600435610b07612789565b8015610a66577f0000000000000000000000000000000000000000000000000000000000000000604051907f23b872dd00000000000000000000000000000000000000000000000000000000845233600452306024528260445260208460648180855af16001855114811615610c73575b826040528460605215610c3057505064e8d4a5100080820291820403610c03573382528160205260408220610bae82825461277c565b90556040519081527fe1fffcc4923d04b559f4d29a8bfc6cda04eb5b0d3c460751c2402c5c5cc9109c60203392a260017f9b779b17422d0df92223018b32b4d1fa46e071723d6817e2486d003becc55f005580f35b6024827f4e487b710000000000000000000000000000000000000000000000000000000081526011600452fd5b7f5274afe700000000000000000000000000000000000000000000000000000000825273ffffffffffffffffffffffffffffffffffffffff166004820152602490fd5b6001811516610c8957813b15153d151616610b78565b823d86823e3d90fd5b503461012c57807ffffffffffffffffffffffffffffffffffffffffffffffffffffffffffffffffc36011261012c57602060405173ffffffffffffffffffffffffffffffffffffffff7f0000000000000000000000000000000000000000000000000000000000000000168152f35b503461012c57807ffffffffffffffffffffffffffffffffffffffffffffffffffffffffffffffffc36011261012c576020604051670de0b6b3a76400008152f35b503461012c57602090817ffffffffffffffffffffffffffffffffffffffffffffffffffffffffffffffffc36011261012c57600435610d7f612789565b73ffffffffffffffffffffffffffffffffffffffff90817f00000000000000000000000000000000000000000000000000000000000000001692604051937feb02c3010000000000000000000000000000000000000000000000000000000085528260048601526101609460249086818381865afa96871561126b5784976114ea575b505084878701511633036114c0576040517fa32fce3b00000000000000000000000000000000000000000000000000000000815284600482015287818381865afa90811561126b578491611487575b501561145d576040517fe98c11fa0000000000000000000000000000000000000000000000000000000081526040818381897f000000000000000000000000000000000000000000000000000000000000000016998a60048301527f0000000000000000000000000000000000000000000000000000000000000000165afa90811561126b57849161143d575b506040517fe12ed13c00000000000000000000000000000000000000000000000000000000815288816004818a5afa908115611377578591611410575b50863b1561140c57604051917f19a655330000000000000000000000000000000000000000000000000000000083526004830152828201528381604481838a5af1801561126b579084916113f8575b50506040860180519096901561138257606081015195604051967fca438c710000000000000000000000000000000000000000000000000000000088526004880152604087848188855af180156113775785978691611352575b50965b88511561133f5760a0830151610fdc916126df565b604051907f604096320000000000000000000000000000000000000000000000000000000082528a82600481865afa8015611334578790611305575b6110339250670de0b6b3a76400009283916060870151612528565b046040517f77fac3040000000000000000000000000000000000000000000000000000000081528c81600481885afa9081156112fa57918c91878b9485926112be575b509260a0966110d46110ee9796946110996110da9560e06110e8990151906126df565b9351156112b6577fffffffffffffffffffffffffffffffffffffffffffffffffffffffffffffffff935b958612801596906112a75790612528565b04612723565b901561128057600190612723565b90612761565b9860c0840161110b6111018c8351612761565b9151600154612568565b6001558781131561127a57338852878c5261112b6040892091825461277c565b90555b51151592015191813b15611276576040517f4e1587f60000000000000000000000000000000000000000000000000000000081529015156004820152602481019290925284908290604490829084905af1801561126b57908491611257575b5050813b1561077c576001606484928360405195869485937fe02cea030000000000000000000000000000000000000000000000000000000085528a60048601528401528a60448401525af180156107bb57611243575b505060405191838352848301527f7a0db93fde80eea902af70e15fa590136ec8ea44fbc9de1a71175446513213f560403393a360017f9b779b17422d0df92223018b32b4d1fa46e071723d6817e2486d003becc55f0055604051908152f35b61124d8291612575565b61012c57806111e4565b61126090612575565b61077c57825f61118d565b6040513d86823e3d90fd5b8580fd5b5061112e565b7fffffffffffffffffffffffffffffffffffffffffffffffffffffffffffffffff90612723565b6112b0906126f7565b90612528565b6001936110c3565b959450505090508c83813d83116112f3575b6112da81836125b6565b810103126107af579151909188918c91908760a0611076565b503d6112d0565b6040513d8b823e3d90fd5b508a82813d831161132d575b61131b81836125b6565b810103126107af576110339151611018565b503d611311565b6040513d89823e3d90fd5b61134d9060a08401516126df565b610fdc565b905061136e91975060403d60401161087a5761086b81836125b6565b9690965f610fc4565b6040513d87823e3d90fd5b606081015195604051967f4cb317790000000000000000000000000000000000000000000000000000000088526004880152604087848188855af1801561137757859786916113d3575b5096610fc7565b90506113ef91975060403d60401161087a5761086b81836125b6565b9690965f6113cc565b61140190612575565b61077c57825f610f6a565b8480fd5b90508881813d8311611436575b61142781836125b6565b810103126107af57515f610f1b565b503d61141d565b611456915060403d60401161087a5761086b81836125b6565b505f610ede565b60046040517f6ec9be11000000000000000000000000000000000000000000000000000000008152fd5b90508781813d83116114b9575b61149e81836125b6565b810103126114b5576114af906125f7565b5f610e51565b8380fd5b503d611494565b60046040517f70d645e3000000000000000000000000000000000000000000000000000000008152fd5b61150a929750803d10611512575b61150281836125b6565b810190612604565b945f80610e02565b503d6114f8565b503461012c57807ffffffffffffffffffffffffffffffffffffffffffffffffffffffffffffffffc36011261012c5760206040516801a055690d9db800008152f35b503461012c57807ffffffffffffffffffffffffffffffffffffffffffffffffffffffffffffffffc36011261012c57602060405173ffffffffffffffffffffffffffffffffffffffff7f0000000000000000000000000000000000000000000000000000000000000000168152f35b503461012c57807ffffffffffffffffffffffffffffffffffffffffffffffffffffffffffffffffc36011261012c57602060405173ffffffffffffffffffffffffffffffffffffffff7f0000000000000000000000000000000000000000000000000000000000000000168152f35b503461012c57807ffffffffffffffffffffffffffffffffffffffffffffffffffffffffffffffffc36011261012c57602060405173ffffffffffffffffffffffffffffffffffffffff7f0000000000000000000000000000000000000000000000000000000000000000168152f35b50346107af5760207ffffffffffffffffffffffffffffffffffffffffffffffffffffffffffffffffc3601126107af576116e0612789565b6040517fa02fd4ae00000000000000000000000000000000000000000000000000000000815273ffffffffffffffffffffffffffffffffffffffff7f000000000000000000000000000000000000000000000000000000000000000016600482015273ffffffffffffffffffffffffffffffffffffffff7f0000000000000000000000000000000000000000000000000000000000000000166024820152600435604482015260208160648173ffffffffffffffffffffffffffffffffffffffff7f0000000000000000000000000000000000000000000000000000000000000000165afa9081156121c9575f9161226d575b5015612243576040517feb02c301000000000000000000000000000000000000000000000000000000008152600435600482015261016090818160248173ffffffffffffffffffffffffffffffffffffffff7f0000000000000000000000000000000000000000000000000000000000000000165afa9182156121c9575f92612226575b50506040517fe98c11fa00000000000000000000000000000000000000000000000000000000815273ffffffffffffffffffffffffffffffffffffffff7f000000000000000000000000000000000000000000000000000000000000000016600482015260408160248173ffffffffffffffffffffffffffffffffffffffff7f0000000000000000000000000000000000000000000000000000000000000000165afa9081156121c9575f91612206575b506040517fe12ed13c00000000000000000000000000000000000000000000000000000000815260208160048173ffffffffffffffffffffffffffffffffffffffff7f0000000000000000000000000000000000000000000000000000000000000000165afa9081156121c9575f916121d4575b5073ffffffffffffffffffffffffffffffffffffffff7f0000000000000000000000000000000000000000000000000000000000000000163b156107af57604051917f19a65533000000000000000000000000000000000000000000000000000000008352600483015260248201525f816044818373ffffffffffffffffffffffffffffffffffffffff7f0000000000000000000000000000000000000000000000000000000000000000165af180156121c9576121b6575b50604081015115612110576060810151604051907fca438c7100000000000000000000000000000000000000000000000000000000825260048201526040816024818673ffffffffffffffffffffffffffffffffffffffff7f0000000000000000000000000000000000000000000000000000000000000000165af19081156108465783916120f0575b50905b6040810151156120dc5782611adb60a0830151846126df565b6040517f6040963200000000000000000000000000000000000000000000000000000000815260208160048173ffffffffffffffffffffffffffffffffffffffff7f0000000000000000000000000000000000000000000000000000000000000000165afa9081156108465783916120a3575b50611b66670de0b6b3a7640000916060860151612528565b046040517f77fac30400000000000000000000000000000000000000000000000000000000815260208160048173ffffffffffffffffffffffffffffffffffffffff7f0000000000000000000000000000000000000000000000000000000000000000165afa90811561126b578491612068575b50611c4292916110da611bf56110e89360e0890151906126df565b60408801519092901561205457670de0b6b3a76400006110d47fffffffffffffffffffffffffffffffffffffffffffffffffffffffffffffffff925b898612801596906112a75790612528565b611c508160c0850151612761565b93604051907f56cdf82300000000000000000000000000000000000000000000000000000000825260208260048173ffffffffffffffffffffffffffffffffffffffff7f0000000000000000000000000000000000000000000000000000000000000000165afa91821561126b57849261201b575b50670de0b6b3a764000091611cd991612528565b0493611ceb60c0850151600154612568565b6001558480821315611f7857611d0091612568565b73ffffffffffffffffffffffffffffffffffffffff602085015116835282602052611d306040842091825461277c565b90553382528160205260408220611d4885825461277c565b90555b6040830151151560a08401519073ffffffffffffffffffffffffffffffffffffffff7f0000000000000000000000000000000000000000000000000000000000000000163b156114b5576040517f4e1587f6000000000000000000000000000000000000000000000000000000008152901515600482015260248101919091528281604481837f000000000000000000000000000000000000000000000000000000000000000073ffffffffffffffffffffffffffffffffffffffff165af1908115610846578391611f64575b505073ffffffffffffffffffffffffffffffffffffffff7f0000000000000000000000000000000000000000000000000000000000000000163b1561019557604051907fe02cea03000000000000000000000000000000000000000000000000000000008252600435600483015260026024830152604482015281816064818373ffffffffffffffffffffffffffffffffffffffff7f0000000000000000000000000000000000000000000000000000000000000000165af180156107bb57611f50575b5050602073ffffffffffffffffffffffffffffffffffffffff9101511660405191825233917f9f843df2e2b0c791e0c3993c883e11d06a6fcc960fb3a2765a6f4ab8a1bd07ca602060043592a460017f9b779b17422d0df92223018b32b4d1fa46e071723d6817e2486d003becc55f005580f35b611f5990612575565b61077c57825f611edc565b611f6d90612575565b61019557815f611e18565b83821315611f9e575033835282602052611f976040842091825461277c565b9055611d4b565b90611fa8906126f7565b600254611fb5838361277c565b8110611fea5750611fd191611fc99161277c565b600254612568565b6002553382528160205260408220611f9785825461277c565b91505080611ff9575b50611d4b565b3383528260205261200f6040842091825461277c565b9055816002555f611ff3565b935090506020833d60201161204c575b81612038602093836125b6565b810103126107af5791518592611cd9611cc5565b3d915061202b565b670de0b6b3a76400006110d4600192611c31565b935050906020833d60201161209b575b81612085602093836125b6565b810103126107af57915185929190611c42611bda565b3d9150612078565b9250506020823d6020116120d4575b816120bf602093836125b6565b810103126107af579051849190611b66611b4e565b3d91506120b2565b826120eb8360a08401516126df565b611adb565b612109915060403d60401161087a5761086b81836125b6565b505f611abf565b6060810151604051907f4cb3177900000000000000000000000000000000000000000000000000000000825260048201526040816024818673ffffffffffffffffffffffffffffffffffffffff7f0000000000000000000000000000000000000000000000000000000000000000165af1908115610846578391612196575b5090611ac2565b6121af915060403d60401161087a5761086b81836125b6565b505f61218f565b6121c1919250612575565b5f905f611a35565b6040513d5f823e3d90fd5b90506020813d6020116121fe575b816121ef602093836125b6565b810103126107af57515f61197c565b3d91506121e2565b61221f915060403d60401161087a5761086b81836125b6565b505f611908565b61223c9250803d106115125761150281836125b6565b5f80611857565b60046040517fddeb79ba000000000000000000000000000000000000000000000000000000008152fd5b90506020813d60201161229f575b81612288602093836125b6565b810103126107af57612299906125f7565b5f6117d3565b3d915061227b565b346107af5760207ffffffffffffffffffffffffffffffffffffffffffffffffffffffffffffffffc3601126107af576004356122e1612789565b8015610a6657335f525f6020528060405f2054106109fe57335f525f60205260405f2061230f828254612568565b90557f0000000000000000000000000000000000000000000000000000000000000000604051907fa9059cbb000000000000000000000000000000000000000000000000000000005f523360045264e8d4a51000830460245260205f60448180855af160015f51148116156123db575b8260405215610c3057826040519081527f884edad9ce6fa2440d8a54cc123490eb96d2768479d49ff9c7366125a942436460203392a260017f9b779b17422d0df92223018b32b4d1fa46e071723d6817e2486d003becc55f0055005b60018115166123f157813b15153d15161661237f565b823d5f823e3d90fd5b346107af575f7ffffffffffffffffffffffffffffffffffffffffffffffffffffffffffffffffc3601126107af576020600154604051908152f35b346107af575f7ffffffffffffffffffffffffffffffffffffffffffffffffffffffffffffffffc3601126107af576020600354604051908152f35b346107af575f7ffffffffffffffffffffffffffffffffffffffffffffffffffffffffffffffffc3601126107af5760606001546002546003549060405192835260208301526040820152f35b346107af575f7ffffffffffffffffffffffffffffffffffffffffffffffffffffffffffffffffc3601126107af5760209073ffffffffffffffffffffffffffffffffffffffff7f0000000000000000000000000000000000000000000000000000000000000000168152f35b8181029291811591840414171561253b57565b7f4e487b71000000000000000000000000000000000000000000000000000000005f52601160045260245ffd5b9190820391821161253b57565b67ffffffffffffffff811161258957604052565b7f4e487b71000000000000000000000000000000000000000000000000000000005f52604160045260245ffd5b90601f7fffffffffffffffffffffffffffffffffffffffffffffffffffffffffffffffe0910116810190811067ffffffffffffffff82111761258957604052565b519081151582036107af57565b809161016092839103126107af5760405191820182811067ffffffffffffffff8211176125895760405280518252602081015173ffffffffffffffffffffffffffffffffffffffff811681036107af576020830152612665604082016125f7565b6040830152606081015160608301526080810151608083015260a081015160a083015260c081015160c083015260e081015160e08301526101008082015190830152610120808201519060038210156107af57830152610140809101519082015290565b91908260409103126107af576020825192015190565b81810392915f13801582851316918412161761253b57565b7f8000000000000000000000000000000000000000000000000000000000000000811461253b575f0390565b81810292915f82127f800000000000000000000000000000000000000000000000000000000000000082141661253b57818405149015171561253b57565b9190915f838201938412911290801582169115161761253b57565b9190820180921161253b57565b7f9b779b17422d0df92223018b32b4d1fa46e071723d6817e2486d003becc55f0060028154146127b95760029055565b60046040517f3ee5aeb5000000000000000000000000000000000000000000000000000000008152fdfea264697066735822122057009322d63432cf2103c287ba6dd88189a9d6db1e8276409e84ddf10d0d16c264736f6c6343000817003360a0346100c957601f610f7938819003918201601f19168301916001600160401b038311848410176100cd5780849260409485528339810103126100c957602081519101518115908180156100c1575b6100af57825f558060015580830292830414171561009b5760025560016005555f600655600160075533608052604051610e9790816100e2823960805181818161051701526109ea0152f35b634e487b7160e01b5f52601160045260245ffd5b604051633dce448b60e11b8152600490fd5b50801561004f565b5f80fd5b634e487b7160e01b5f52604160045260245ffdfe6080604081815260049182361015610015575f80fd5b5f3560e01c90816301a828a314610ad557508063097870ae14610a6a5780630e830e491461099457806315f54f9a1461095957806319a65533146108fe5780634338ae47146108c35780634cb31779146108595780634e1587f6146107a557806360409632146107645780636c979157146106e257806377fac304146106a6578063972fcff31461066b57806397fb72891461062f5780639da771f4146105f3578063a40f1e00146105b7578063aaf5eb6814610577578063b4f40c611461053b578063c45a0155146104cd578063c4b0340a146103ec578063c9d4623f1461039a578063ca438c711461022d578063dfdf2a72146101f2578063e12ed13c146101b6578063edbae33a1461016f5763f67908b514610132575f80fd5b3461016b575f7ffffffffffffffffffffffffffffffffffffffffffffffffffffffffffffffffc36011261016b57602091549051908152f35b5f80fd5b50903461016b5760207ffffffffffffffffffffffffffffffffffffffffffffffffffffffffffffffffc36011261016b576101aa9035610dfa565b82519182526020820152f35b503461016b575f7ffffffffffffffffffffffffffffffffffffffffffffffffffffffffffffffffc36011261016b576020906005549051908152f35b503461016b575f7ffffffffffffffffffffffffffffffffffffffffffffffffffffffffffffffffc36011261016b576020905f549051908152f35b50903461016b5760207ffffffffffffffffffffffffffffffffffffffffffffffffffffffffffffffffc36011261016b5780359073ffffffffffffffffffffffffffffffffffffffff600854163303610373576102979061028d83610d79565b9290935f54610ba9565b90815f556102a782600254610ba9565b907fffffffffffffffffffffffffffffffffffffffffffffffffffffffffffffffff82019182116103475750906102ff817fe66cd0d1751b6e82cb9f412f722b6dea0a1eeca0fbc1b9c8c2972f16d228ee2a93610bf0565b908160015561030e8282610c27565b60025561033861031c610d51565b8751938493846040919493926060820195825260208201520152565b0390a182519182526020820152f35b6011907f4e487b71000000000000000000000000000000000000000000000000000000005f525260245ffd5b82517f82b42900000000000000000000000000000000000000000000000000000000008152fd5b503461016b575f7ffffffffffffffffffffffffffffffffffffffffffffffffffffffffffffffffc36011261016b5760209073ffffffffffffffffffffffffffffffffffffffff600854169051908152f35b50903461016b5760207ffffffffffffffffffffffffffffffffffffffffffffffffffffffffffffffffc36011261016b5780359073ffffffffffffffffffffffffffffffffffffffff600854163303610373576104579061044c83610cc0565b929093600154610be3565b908160015561046882600254610ba9565b907fffffffffffffffffffffffffffffffffffffffffffffffffffffffffffffffff82019182116103475750906104c0817fe66cd0d1751b6e82cb9f412f722b6dea0a1eeca0fbc1b9c8c2972f16d228ee2a93610bf0565b805f5561030e8282610c27565b503461016b575f7ffffffffffffffffffffffffffffffffffffffffffffffffffffffffffffffffc36011261016b576020905173ffffffffffffffffffffffffffffffffffffffff7f0000000000000000000000000000000000000000000000000000000000000000168152f35b503461016b575f7ffffffffffffffffffffffffffffffffffffffffffffffffffffffffffffffffc36011261016b576020906002549051908152f35b503461016b575f7ffffffffffffffffffffffffffffffffffffffffffffffffffffffffffffffffc36011261016b5760209051670de0b6b3a76400008152f35b503461016b575f7ffffffffffffffffffffffffffffffffffffffffffffffffffffffffffffffffc36011261016b576020906007549051908152f35b503461016b575f7ffffffffffffffffffffffffffffffffffffffffffffffffffffffffffffffffc36011261016b576020906001549051908152f35b503461016b575f7ffffffffffffffffffffffffffffffffffffffffffffffffffffffffffffffffc36011261016b576020906003549051908152f35b50903461016b5760207ffffffffffffffffffffffffffffffffffffffffffffffffffffffffffffffffc36011261016b576101aa9035610d79565b503461016b575f7ffffffffffffffffffffffffffffffffffffffffffffffffffffffffffffffffc36011261016b576020906006549051908152f35b503461016b5760207ffffffffffffffffffffffffffffffffffffffffffffffffffffffffffffffffc36011261016b5773ffffffffffffffffffffffffffffffffffffffff60085416330361073e575035600554016005555f80f35b517f82b42900000000000000000000000000000000000000000000000000000000008152fd5b503461016b575f7ffffffffffffffffffffffffffffffffffffffffffffffffffffffffffffffffc36011261016b5760209061079e610d51565b9051908152f35b503461016b576107b436610b6c565b73ffffffffffffffffffffffffffffffffffffffff600894929454163303610831577fec9d3d15d27b45ec272eca821314dbc7dfac39e122618a8cbfb23ca99d19c883931561081f5761080990600354610be3565b6003555b600354905482519182526020820152a1005b61082a908254610be3565b815561080d565b5090517f82b42900000000000000000000000000000000000000000000000000000000008152fd5b50903461016b5760207ffffffffffffffffffffffffffffffffffffffffffffffffffffffffffffffffc36011261016b5780359073ffffffffffffffffffffffffffffffffffffffff60085416330361037357610297906108b983610dfa565b9290935f54610be3565b50903461016b5760207ffffffffffffffffffffffffffffffffffffffffffffffffffffffffffffffffc36011261016b576101aa9035610cc0565b503461016b57807ffffffffffffffffffffffffffffffffffffffffffffffffffffffffffffffffc36011261016b5773ffffffffffffffffffffffffffffffffffffffff60085416330361073e575035600655602435600755005b50903461016b5760207ffffffffffffffffffffffffffffffffffffffffffffffffffffffffffffffffc36011261016b576101aa9035610c3a565b503461016b5760207ffffffffffffffffffffffffffffffffffffffffffffffffffffffffffffffffc36011261016b5781359173ffffffffffffffffffffffffffffffffffffffff9182841680940361016b57827f000000000000000000000000000000000000000000000000000000000000000016330361073e57600854928316610a44577fffffffffffffffffffffffff000000000000000000000000000000000000000083168417600855005b517fe6123baf000000000000000000000000000000000000000000000000000000008152fd5b50903461016b5760207ffffffffffffffffffffffffffffffffffffffffffffffffffffffffffffffffc36011261016b5780359073ffffffffffffffffffffffffffffffffffffffff6008541633036103735761045790610aca83610c3a565b929093600154610ba9565b82843461016b57610ae536610b6c565b909373ffffffffffffffffffffffffffffffffffffffff600854163303610b4557507fec9d3d15d27b45ec272eca821314dbc7dfac39e122618a8cbfb23ca99d19c8839315610b3a5761080990600354610ba9565b61082a908254610ba9565b90507f82b42900000000000000000000000000000000000000000000000000000000008152fd5b7ffffffffffffffffffffffffffffffffffffffffffffffffffffffffffffffffc604091011261016b57600435801515810361016b579060243590565b91908201809211610bb657565b7f4e487b71000000000000000000000000000000000000000000000000000000005f52601160045260245ffd5b91908203918211610bb657565b8115610bfa570490565b7f4e487b71000000000000000000000000000000000000000000000000000000005f52601260045260245ffd5b81810292918115918404141715610bb657565b908115610cb957610c4d82600154610ba9565b610c5981600254610ba9565b7fffffffffffffffffffffffffffffffffffffffffffffffffffffffffffffffff8101908111610bb657610c9791610c9091610bf0565b5f54610be3565b91670de0b6b3a764000080820291820403610bb65782610cb691610bf0565b90565b5f91508190565b908115610cb95760015480831015610d275782610cdc91610be3565b610ce881600254610ba9565b7fffffffffffffffffffffffffffffffffffffffffffffffffffffffffffffffff8101908111610bb657610c9791610d1f91610bf0565b5f5490610be3565b60046040517fbb55fd27000000000000000000000000000000000000000000000000000000008152fd5b600154670de0b6b3a764000090818102918183041490151715610bb6575f54610cb691610bf0565b908115610cb957610d8b825f54610ba9565b610d9781600254610ba9565b7fffffffffffffffffffffffffffffffffffffffffffffffffffffffffffffffff8101908111610bb657610dd691610dce91610bf0565b600154610be3565b91670de0b6b3a764000090818402918483041484151715610bb657610cb691610bf0565b908115610cb9575f5480831015610d275782610e1591610be3565b610e2181600254610ba9565b7fffffffffffffffffffffffffffffffffffffffffffffffffffffffffffffffff8101908111610bb657610dd691610e5891610bf0565b60015490610be356fea264697066735822122077df8344ca9d796816c889201a8ced6c5be4284e7bce89d7502e77f9d0b0241f64736f6c6343000817003360c0346100bc57601f61182c38819003918201601f19168301916001600160401b038311848410176100c05780849260409485528339810103126100bc5780516001600160a01b039190828116036100bc576020015190811681036100bc573360805260a052600160025560405161175790816100d582396080518181816105260152611238015260a0518181816106ba015281816107080152818161098d01528181610d0f01528181610ea30152818161104e01526114d90152f35b5f80fd5b634e487b7160e01b5f52604160045260245ffdfe6080806040526004361015610012575f80fd5b5f3560e01c9081630e830e49146111e85750806334e3621a146111a757806363b64a1814610db45780636bab7cab14610d73578063786ab30c14610d3357806380f5560514610cc557806387492d3e14610c85578063899346c714610c4a57806399fbab8814610b6f578063a23e48f514610b2f578063a32fce3b14610a2b578063aaf5eb68146109eb578063bc5b83d214610582578063be515fcb1461054a578063c45a0155146104dc578063c9d4623f1461048c578063db24e2a214610448578063e02cea0314610333578063e7259801146102f35763eb02c301146100f8575f80fd5b346102ef5760207ffffffffffffffffffffffffffffffffffffffffffffffffffffffffffffffffc3601126102ef576004355f61014060405161013a8161132a565b8281528260208201528260408201528260608201528260808201528260a08201528260c08201528260e082015282610100820152826101208201520152805f52600160205260405f2054156102c5575f52600160205261016060405f206009604051916101a68361132a565b8054835260ff600182015473ffffffffffffffffffffffffffffffffffffffff8116602086015260a01c16151560408401526002810154606084015260038101546080840152600481015460a0840152600581015460c0840152600681015460e0840152600781015461010084015261022a60ff60088301541661012085016113b5565b0154610140820152610140604051918051835273ffffffffffffffffffffffffffffffffffffffff6020820151166020840152604081015115156040840152606081015160608401526080810151608084015260a081015160a084015260c081015160c084015260e081015160e08401526101008101516101008401526102bb61012082015161012085019061131d565b0151610140820152f35b60046040517f6ec9be11000000000000000000000000000000000000000000000000000000008152fd5b5f80fd5b346102ef575f7ffffffffffffffffffffffffffffffffffffffffffffffffffffffffffffffffc3601126102ef57602060405167016345785d8a00008152f35b346102ef5760607ffffffffffffffffffffffffffffffffffffffffffffffffffffffffffffffffc3601126102ef5760243560038110156102ef5773ffffffffffffffffffffffffffffffffffffffff5f5416330361041e576004355f52600160205260405f2090600882019060ff82541660038110156103f1576103c7576103bb916113c1565b60096044359101555f80f35b60046040517f94e88a21000000000000000000000000000000000000000000000000000000008152fd5b7f4e487b71000000000000000000000000000000000000000000000000000000005f52602160045260245ffd5b60046040517f82b42900000000000000000000000000000000000000000000000000000000008152fd5b346102ef5760207ffffffffffffffffffffffffffffffffffffffffffffffffffffffffffffffffc3601126102ef5760206104846004356116de565b604051908152f35b346102ef575f7ffffffffffffffffffffffffffffffffffffffffffffffffffffffffffffffffc3601126102ef57602073ffffffffffffffffffffffffffffffffffffffff5f5416604051908152f35b346102ef575f7ffffffffffffffffffffffffffffffffffffffffffffffffffffffffffffffffc3601126102ef57602060405173ffffffffffffffffffffffffffffffffffffffff7f0000000000000000000000000000000000000000000000000000000000000000168152f35b346102ef575f7ffffffffffffffffffffffffffffffffffffffffffffffffffffffffffffffffc3601126102ef5760206104846114ab565b346102ef576020807ffffffffffffffffffffffffffffffffffffffffffffffffffffffffffffffffc3601126102ef576004355f526001815260405f20604051916105cc8361132a565b8154835260018201549173ffffffffffffffffffffffffffffffffffffffff938484168382015260ff604082019460a01c1615158452600282015494606082019586526003830154608083015260048301549460a0830195865260058401549360c0840194855260068101549360e081019485526007820154610100820152610140600960ff60088501541693610668610120850195866113b5565b01549101525160038110156103f1576103c75780511561095557865192604051937f972fcff30000000000000000000000000000000000000000000000000000000085526004850152604084602481867f0000000000000000000000000000000000000000000000000000000000000000165afa80156108d4575f945f91610920575b5093965b8251889015610910575061070490518861140e565b925b7f00000000000000000000000000000000000000000000000000000000000000001690604051987f60409632000000000000000000000000000000000000000000000000000000008a52878a600481865afa998a156108d4575f9a6108df575b509087600492610781670de0b6b3a76400009c8d925161130a565b0493604051938480927f77fac3040000000000000000000000000000000000000000000000000000000082525afa9182156108d4575f9261089e575b509160c0996107d5610819936108279695519061140e565b935115610893576108137fffffffffffffffffffffffffffffffffffffffffffffffffffffffffffffffff925b5f861280159690610884579061130a565b04611452565b901561085d57600190611452565b9161083d6108358484611490565b809551611490565b9460405196875286015260408501526060840152608083015260a0820152f35b7fffffffffffffffffffffffffffffffffffffffffffffffffffffffffffffffff90611452565b61088d90611426565b9061130a565b610813600192610802565b93929091508784813d83116108cd575b6108b88183611374565b810103126102ef5792519192919060c06107bd565b503d6108ae565b6040513d5f823e3d90fd5b919099508782813d8311610909575b6108f88183611374565b810103126102ef5790519887610766565b503d6108ee565b61091a915161140e565b92610706565b905061094591945060403d60401161094e575b61093d8183611374565b8101906113f8565b939093896106eb565b503d610933565b865192604051937fedbae33a0000000000000000000000000000000000000000000000000000000085526004850152604084602481867f0000000000000000000000000000000000000000000000000000000000000000165afa80156108d4575f945f916109c6575b5093966106ef565b90506109e291945060403d60401161094e5761093d8183611374565b939093896109be565b346102ef575f7ffffffffffffffffffffffffffffffffffffffffffffffffffffffffffffffffc3601126102ef576020604051670de0b6b3a76400008152f35b346102ef5760207ffffffffffffffffffffffffffffffffffffffffffffffffffffffffffffffffc3601126102ef576004355f52600160205260405f20604051610a748161132a565b8154815260ff600183015473ffffffffffffffffffffffffffffffffffffffff8116602084015260a01c16151560408201526002820154606082015260038201546080820152600482015460a0820152600582015460c0820152600682015460e08201526007820154610100820152600960ff60088401541692610afd610120840194856113b5565b015461014082015251151580610b1b575b6020906040519015158152f35b505160038110156103f15760209015610b0e565b346102ef575f7ffffffffffffffffffffffffffffffffffffffffffffffffffffffffffffffffc3601126102ef576020604051678ac7230489e800008152f35b346102ef5760207ffffffffffffffffffffffffffffffffffffffffffffffffffffffffffffffffc3601126102ef576004355f52600160205261016060405f20805490610c4260018201549160028101546003820154600483015460058401549060068501549260078601549460ff60098160088a015416980154996040519b8c5273ffffffffffffffffffffffffffffffffffffffff811660208d015260a01c16151560408b015260608a0152608089015260a088015260c087015260e086015261010085015261012084019061131d565b610140820152f35b346102ef575f7ffffffffffffffffffffffffffffffffffffffffffffffffffffffffffffffffc3601126102ef576020600254604051908152f35b346102ef575f7ffffffffffffffffffffffffffffffffffffffffffffffffffffffffffffffffc3601126102ef5760206040516702c68af0bb1400008152f35b346102ef575f7ffffffffffffffffffffffffffffffffffffffffffffffffffffffffffffffffc3601126102ef57602060405173ffffffffffffffffffffffffffffffffffffffff7f0000000000000000000000000000000000000000000000000000000000000000168152f35b346102ef575f7ffffffffffffffffffffffffffffffffffffffffffffffffffffffffffffffffc3601126102ef576020604051670429d069189e00008152f35b346102ef575f7ffffffffffffffffffffffffffffffffffffffffffffffffffffffffffffffffc3601126102ef5760206040516801a055690d9db800008152f35b346102ef5760c07ffffffffffffffffffffffffffffffffffffffffffffffffffffffffffffffffc3601126102ef57610deb6112e7565b6024359081151582036102ef5773ffffffffffffffffffffffffffffffffffffffff5f5416330361041e57600254907fffffffffffffffffffffffffffffffffffffffffffffffffffffffffffffffff821461117a5760018201600255670de0b6b3a7640000610e5f60643560443561130a565b046040517fe12ed13c00000000000000000000000000000000000000000000000000000000815260208160048173ffffffffffffffffffffffffffffffffffffffff7f0000000000000000000000000000000000000000000000000000000000000000165afa9081156108d4575f91611148575b50604051610ee08161132a565b84815273ffffffffffffffffffffffffffffffffffffffff84166020820152604081019186151583526060820190604435825260808301606435815260a0840186815260c0850190608435825260e086019260a435845261010087019485526101208701955f87526101408801975f89528c5f52600160205260405f209981518b5573ffffffffffffffffffffffffffffffffffffffff602060018d01930151167fffffffffffffffffffffff00000000000000000000000000000000000000000074ff000000000000000000000000000000000000000084549351151560a01b16921617179055516002890155516003880155516004870155516005860155516006850155516007840155519060038210156103f157611006600992600885016113c1565b51910155604051937fe12ed13c00000000000000000000000000000000000000000000000000000000855260208560048173ffffffffffffffffffffffffffffffffffffffff7f0000000000000000000000000000000000000000000000000000000000000000165afa9485156108d4575f956110f4575b507fb20da72397115be24b6d1f7dabd8a256df6c4aff81c20075404c76417fbb2d1260c073ffffffffffffffffffffffffffffffffffffffff86936020986040519660443588526064358b8901526040880152608435606088015260a435608088015260a08701521515951693a4604051908152f35b94506020853d602011611140575b8161110f60209383611374565b810103126102ef579351937fb20da72397115be24b6d1f7dabd8a256df6c4aff81c20075404c76417fbb2d1261107e565b3d9150611102565b90506020813d602011611172575b8161116360209383611374565b810103126102ef575185610ed3565b3d9150611156565b7f4e487b71000000000000000000000000000000000000000000000000000000005f52601160045260245ffd5b346102ef575f7ffffffffffffffffffffffffffffffffffffffffffffffffffffffffffffffffc3601126102ef5760206040516801158e460913d000008152f35b346102ef5760207ffffffffffffffffffffffffffffffffffffffffffffffffffffffffffffffffc3601126102ef5761121f6112e7565b73ffffffffffffffffffffffffffffffffffffffff91827f00000000000000000000000000000000000000000000000000000000000000001633036112bf57505f5491808316611295577fffffffffffffffffffffffff000000000000000000000000000000000000000091169116175f555f80f35b60046040517fe6123baf000000000000000000000000000000000000000000000000000000008152fd5b807f82b429000000000000000000000000000000000000000000000000000000000060049252fd5b6004359073ffffffffffffffffffffffffffffffffffffffff821682036102ef57565b8181029291811591840414171561117a57565b9060038210156103f15752565b610160810190811067ffffffffffffffff82111761134757604052565b7f4e487b71000000000000000000000000000000000000000000000000000000005f52604160045260245ffd5b90601f7fffffffffffffffffffffffffffffffffffffffffffffffffffffffffffffffe0910116810190811067ffffffffffffffff82111761134757604052565b60038210156103f15752565b9060038110156103f15760ff7fffffffffffffffffffffffffffffffffffffffffffffffffffffffffffffff008354169116179055565b91908260409103126102ef576020825192015190565b81810392915f13801582851316918412161761117a57565b7f8000000000000000000000000000000000000000000000000000000000000000811461117a575f0390565b81810292915f82127f800000000000000000000000000000000000000000000000000000000000000082141661117a57818405149015171561117a57565b9190915f838201938412911290801582169115161761117a57565b6040517f97fb72890000000000000000000000000000000000000000000000000000000081526020906004907f000000000000000000000000000000000000000000000000000000000000000073ffffffffffffffffffffffffffffffffffffffff1683828481845afa9182156108d457839185915f946116ac575b50604051928380927ff67908b50000000000000000000000000000000000000000000000000000000082525afa9384156108d4575f9461167c575b50508281019283821161163257831561166d5761157e9161140e565b5f811261165e57915b670de0b6b3a76400009283810290808204851490151715611632570482810290808204841490151715611606578290048201908183116115da5766038d7ea4c6800091808302928304036115da57500490565b6011907f4e487b71000000000000000000000000000000000000000000000000000000005f525260245ffd5b6011827f4e487b71000000000000000000000000000000000000000000000000000000005f525260245ffd5b6011837f4e487b71000000000000000000000000000000000000000000000000000000005f525260245ffd5b61166790611426565b91611587565b5050505066038d7ea4c6800090565b9080929450813d83116116a5575b6116948183611374565b810103126102ef5751915f80611562565b503d61168a565b9250925081813d83116116d7575b6116c48183611374565b810103126102ef5783839151925f611527565b503d6116ba565b678ac7230489e8000081116116fa575067016345785d8a000090565b6801158e460913d0000010611715576702c68af0bb14000090565b670429d069189e00009056fea2646970667358221220c9bf945717b41b8de42edad1314e9842092ffba1f88483e151c2fe244bb5660d64736f6c63430008170033a26469706673582212202b286686950fe1f5420aec09a129c275a29d63450718af73ddf7a23dfb59cf5f64736f6c63430008170033","linkReferences":{}},"methodIdentifiers":{"createMarket(address,(uint256,uint256,uint256))":"ce0c877f","fundingManager()":"04baed9e","getAllMarkets()":"b0772d0b","getMarket(uint256)":"eb44fdd3","getMarketCount()":"fd69f3c2","isEngine(address)":"aec9beb7","liquidationEngine()":"44bf3c72","markets(uint256)":"b1283e77"},"id":37}