{"abi":[{"type":"constructor","inputs":[{"name":"_baseReserve","type":"uint256","internalType":"uint256"},{"name":"_quoteReserve","type":"uint256","internalType":"uint256"}],"stateMutability":"nonpayable"},{"type":"function","name":"PRECISION","inputs":[],"outputs":[{"name":"","type":"uint256","internalType":"uint256"}],"stateMutability":"view"},{"type":"function","name":"advanceBlocks","inputs":[{"name":"numBlocks","type":"uint256","internalType":"uint256"}],"outputs":[],"stateMutability":"nonpayable"},{"type":"function","name":"baseReserve","inputs":[],"outputs":[{"name":"","type":"uint256","internalType":"uint256"}],"stateMutability":"view"},{"type":"function","name":"cumulativeCarryIndex","inputs":[],"outputs":[{"name":"","type":"int256","internalType":"int256"}],"stateMutability":"view"},{"type":"function","name":"currentBlock","inputs":[],"outputs":[{"name":"","type":"uint256","internalType":"uint256"}],"stateMutability":"view"},{"type":"function","name":"decreaseOpenInterest","inputs":[{"name":"isLong","type":"bool","internalType":"bool"},{"name":"notional","type":"uint256","internalType":"uint256"}],"outputs":[],"stateMutability":"nonpayable"},{"type":"function","name":"engine","inputs":[],"outputs":[{"name":"","type":"address","internalType":"address"}],"stateMutability":"view"},{"type":"function","name":"executeCloseLong","inputs":[{"name":"baseSize","type":"uint256","internalType":"uint256"}],"outputs":[{"name":"quoteOut","type":"uint256","internalType":"uint256"},{"name":"avgPrice","type":"uint256","internalType":"uint256"}],"stateMutability":"nonpayable"},{"type":"function","name":"executeCloseShort","inputs":[{"name":"baseSize","type":"uint256","internalType":"uint256"}],"outputs":[{"name":"quoteIn","type":"uint256","internalType":"uint256"},{"name":"avgPrice","type":"uint256","internalType":"uint256"}],"stateMutability":"nonpayable"},{"type":"function","name":"executeOpenLong","inputs":[{"name":"quoteIn","type":"uint256","internalType":"uint256"}],"outputs":[{"name":"baseOut","type":"uint256","internalType":"uint256"},{"name":"avgPrice","type":"uint256","internalType":"uint256"}],"stateMutability":"nonpayable"},{"type":"function","name":"executeOpenShort","inputs":[{"name":"quoteOut","type":"uint256","internalType":"uint256"}],"outputs":[{"name":"baseIn","type":"uint256","internalType":"uint256"},{"name":"avgPrice","type":"uint256","internalType":"uint256"}],"stateMutability":"nonpayable"},{"type":"function","name":"factory","inputs":[],"outputs":[{"name":"","type":"address","internalType":"address"}],"stateMutability":"view"},{"type":"function","name":"getMarkPrice","inputs":[],"outputs":[{"name":"","type":"uint256","internalType":"uint256"}],"stateMutability":"view"},{"type":"function","name":"increaseOpenInterest","inputs":[{"name":"isLong","type":"bool","internalType":"bool"},{"name":"notional","type":"uint256","internalType":"uint256"}],"outputs":[],"stateMutability":"nonpayable"},{"type":"function","name":"k","inputs":[],"outputs":[{"name":"","type":"uint256","internalType":"uint256"}],"stateMutability":"view"},{"type":"function","name":"lastFundingBlock","inputs":[],"outputs":[{"name":"","type":"uint256","internalType":"uint256"}],"stateMutability":"view"},{"type":"function","name":"longOpenInterest","inputs":[],"outputs":[{"name":"","type":"uint256","internalType":"uint256"}],"stateMutability":"view"},{"type":"function","name":"quoteReserve","inputs":[],"outputs":[{"name":"","type":"uint256","internalType":"uint256"}],"stateMutability":"view"},{"type":"function","name":"setEngine","inputs":[{"name":"_engine","type":"address","internalType":"address"}],"outputs":[],"stateMutability":"nonpayable"},{"type":"function","name":"shortOpenInterest","inputs":[],"outputs":[{"name":"","type":"uint256","internalType":"uint256"}],"stateMutability":"view"},{"type":"function","name":"simulateCloseLong","inputs":[{"name":"baseSize","type":"uint256","internalType":"uint256"}],"outputs":[{"name":"quoteOut","type":"uint256","internalType":"uint256"},{"name":"avgPrice","type":"uint256","internalType":"uint256"}],"stateMutability":"view"},{"type":"function","name":"simulateCloseShort","inputs":[{"name":"baseSize","type":"uint256","internalType":"uint256"}],"outputs":[{"name":"quoteIn","type":"uint256","internalType":"uint256"},{"name":"avgPrice","type":"uint256","internalType":"uint256"}],"stateMutability":"view"},{"type":"function","name":"simulateOpenLong","inputs":[{"name":"quoteIn","type":"uint256","internalType":"uint256"}],"outputs":[{"name":"baseOut","type":"uint256","internalType":"uint256"},{"name":"avgPrice","type":"uint256","internalType":"uint256"}],"stateMutability":"view"},{"type":"function","name":"simulateOpenShort","inputs":[{"name":"quoteOut","type":"uint256","internalType":"uint256"}],"outputs":[{"name":"baseIn","type":"uint256","internalType":"uint256"},{"name":"avgPrice","type":"uint256","internalType":"uint256"}],"stateMutability":"view"},{"type":"function","name":"updateFundingState","inputs":[{"name":"newCarryIndex","type":"int256","internalType":"int256"},{"name":"newFundingBlock","type":"uint256","internalType":"uint256"}],"outputs":[],"stateMutability":"nonpayable"},{"type":"event","name":"OpenInterestUpdated","inputs":[{"name":"longOpenInterest","type":"uint256","indexed":false,"internalType":"uint256"},{"name":"shortOpenInterest","type":"uint256","indexed":false,"internalType":"uint256"}],"anonymous":false},{"type":"event","name":"ReservesUpdated","inputs":[{"name":"baseReserve","type":"uint256","indexed":false,"internalType":"uint256"},{"name":"quoteReserve","type":"uint256","indexed":false,"internalType":"uint256"},{"name":"markPrice","type":"uint256","indexed":false,"internalType":"uint256"}],"anonymous":false},{"type":"error","name":"EngineAlreadySet","inputs":[]},{"type":"error","name":"InsufficientLiquidity","inputs":[]},{"type":"error","name":"InvalidReserves","inputs":[]},{"type":"error","name":"Unauthorized","inputs":[]}],"bytecode":{"object":"0x60a0346100c957601f610f7938819003918201601f19168301916001600160401b038311848410176100cd5780849260409485528339810103126100c957602081519101518115908180156100c1575b6100af57825f558060015580830292830414171561009b5760025560016005555f600655600160075533608052604051610e9790816100e2823960805181818161051701526109ea0152f35b634e487b7160e01b5f52601160045260245ffd5b604051633dce448b60e11b8152600490fd5b50801561004f565b5f80fd5b634e487b7160e01b5f52604160045260245ffdfe6080604081815260049182361015610015575f80fd5b5f3560e01c90816301a828a314610ad557508063097870ae14610a6a5780630e830e491461099457806315f54f9a1461095957806319a65533146108fe5780634338ae47146108c35780634cb31779146108595780634e1587f6146107a557806360409632146107645780636c979157146106e257806377fac304146106a6578063972fcff31461066b57806397fb72891461062f5780639da771f4146105f3578063a40f1e00146105b7578063aaf5eb6814610577578063b4f40c611461053b578063c45a0155146104cd578063c4b0340a146103ec578063c9d4623f1461039a578063ca438c711461022d578063dfdf2a72146101f2578063e12ed13c146101b6578063edbae33a1461016f5763f67908b514610132575f80fd5b3461016b575f7ffffffffffffffffffffffffffffffffffffffffffffffffffffffffffffffffc36011261016b57602091549051908152f35b5f80fd5b50903461016b5760207ffffffffffffffffffffffffffffffffffffffffffffffffffffffffffffffffc36011261016b576101aa9035610dfa565b82519182526020820152f35b503461016b575f7ffffffffffffffffffffffffffffffffffffffffffffffffffffffffffffffffc36011261016b576020906005549051908152f35b503461016b575f7ffffffffffffffffffffffffffffffffffffffffffffffffffffffffffffffffc36011261016b576020905f549051908152f35b50903461016b5760207ffffffffffffffffffffffffffffffffffffffffffffffffffffffffffffffffc36011261016b5780359073ffffffffffffffffffffffffffffffffffffffff600854163303610373576102979061028d83610d79565b9290935f54610ba9565b90815f556102a782600254610ba9565b907fffffffffffffffffffffffffffffffffffffffffffffffffffffffffffffffff82019182116103475750906102ff817fe66cd0d1751b6e82cb9f412f722b6dea0a1eeca0fbc1b9c8c2972f16d228ee2a93610bf0565b908160015561030e8282610c27565b60025561033861031c610d51565b8751938493846040919493926060820195825260208201520152565b0390a182519182526020820152f35b6011907f4e487b71000000000000000000000000000000000000000000000000000000005f525260245ffd5b82517f82b42900000000000000000000000000000000000000000000000000000000008152fd5b503461016b575f7ffffffffffffffffffffffffffffffffffffffffffffffffffffffffffffffffc36011261016b5760209073ffffffffffffffffffffffffffffffffffffffff600854169051908152f35b50903461016b5760207ffffffffffffffffffffffffffffffffffffffffffffffffffffffffffffffffc36011261016b5780359073ffffffffffffffffffffffffffffffffffffffff600854163303610373576104579061044c83610cc0565b929093600154610be3565b908160015561046882600254610ba9565b907fffffffffffffffffffffffffffffffffffffffffffffffffffffffffffffffff82019182116103475750906104c0817fe66cd0d1751b6e82cb9f412f722b6dea0a1eeca0fbc1b9c8c2972f16d228ee2a93610bf0565b805f5561030e8282610c27565b503461016b575f7ffffffffffffffffffffffffffffffffffffffffffffffffffffffffffffffffc36011261016b576020905173ffffffffffffffffffffffffffffffffffffffff7f0000000000000000000000000000000000000000000000000000000000000000168152f35b503461016b575f7ffffffffffffffffffffffffffffffffffffffffffffffffffffffffffffffffc36011261016b576020906002549051908152f35b503461016b575f7ffffffffffffffffffffffffffffffffffffffffffffffffffffffffffffffffc36011261016b5760209051670de0b6b3a76400008152f35b503461016b575f7ffffffffffffffffffffffffffffffffffffffffffffffffffffffffffffffffc36011261016b576020906007549051908152f35b503461016b575f7ffffffffffffffffffffffffffffffffffffffffffffffffffffffffffffffffc36011261016b576020906001549051908152f35b503461016b575f7ffffffffffffffffffffffffffffffffffffffffffffffffffffffffffffffffc36011261016b576020906003549051908152f35b50903461016b5760207ffffffffffffffffffffffffffffffffffffffffffffffffffffffffffffffffc36011261016b576101aa9035610d79565b503461016b575f7ffffffffffffffffffffffffffffffffffffffffffffffffffffffffffffffffc36011261016b576020906006549051908152f35b503461016b5760207ffffffffffffffffffffffffffffffffffffffffffffffffffffffffffffffffc36011261016b5773ffffffffffffffffffffffffffffffffffffffff60085416330361073e575035600554016005555f80f35b517f82b42900000000000000000000000000000000000000000000000000000000008152fd5b503461016b575f7ffffffffffffffffffffffffffffffffffffffffffffffffffffffffffffffffc36011261016b5760209061079e610d51565b9051908152f35b503461016b576107b436610b6c565b73ffffffffffffffffffffffffffffffffffffffff600894929454163303610831577fec9d3d15d27b45ec272eca821314dbc7dfac39e122618a8cbfb23ca99d19c883931561081f5761080990600354610be3565b6003555b600354905482519182526020820152a1005b61082a908254610be3565b815561080d565b5090517f82b42900000000000000000000000000000000000000000000000000000000008152fd5b50903461016b5760207ffffffffffffffffffffffffffffffffffffffffffffffffffffffffffffffffc36011261016b5780359073ffffffffffffffffffffffffffffffffffffffff60085416330361037357610297906108b983610dfa565b9290935f54610be3565b50903461016b5760207ffffffffffffffffffffffffffffffffffffffffffffffffffffffffffffffffc36011261016b576101aa9035610cc0565b503461016b57807ffffffffffffffffffffffffffffffffffffffffffffffffffffffffffffffffc36011261016b5773ffffffffffffffffffffffffffffffffffffffff60085416330361073e575035600655602435600755005b50903461016b5760207ffffffffffffffffffffffffffffffffffffffffffffffffffffffffffffffffc36011261016b576101aa9035610c3a565b503461016b5760207ffffffffffffffffffffffffffffffffffffffffffffffffffffffffffffffffc36011261016b5781359173ffffffffffffffffffffffffffffffffffffffff9182841680940361016b57827f000000000000000000000000000000000000000000000000000000000000000016330361073e57600854928316610a44577fffffffffffffffffffffffff000000000000000000000000000000000000000083168417600855005b517fe6123baf000000000000000000000000000000000000000000000000000000008152fd5b50903461016b5760207ffffffffffffffffffffffffffffffffffffffffffffffffffffffffffffffffc36011261016b5780359073ffffffffffffffffffffffffffffffffffffffff6008541633036103735761045790610aca83610c3a565b929093600154610ba9565b82843461016b57610ae536610b6c565b909373ffffffffffffffffffffffffffffffffffffffff600854163303610b4557507fec9d3d15d27b45ec272eca821314dbc7dfac39e122618a8cbfb23ca99d19c8839315610b3a5761080990600354610ba9565b61082a908254610ba9565b90507f82b42900000000000000000000000000000000000000000000000000000000008152fd5b7ffffffffffffffffffffffffffffffffffffffffffffffffffffffffffffffffc604091011261016b57600435801515810361016b579060243590565b91908201809211610bb657565b7f4e487b71000000000000000000000000000000000000000000000000000000005f52601160045260245ffd5b91908203918211610bb657565b8115610bfa570490565b7f4e487b71000000000000000000000000000000000000000000000000000000005f52601260045260245ffd5b81810292918115918404141715610bb657565b908115610cb957610c4d82600154610ba9565b610c5981600254610ba9565b7fffffffffffffffffffffffffffffffffffffffffffffffffffffffffffffffff8101908111610bb657610c9791610c9091610bf0565b5f54610be3565b91670de0b6b3a764000080820291820403610bb65782610cb691610bf0565b90565b5f91508190565b908115610cb95760015480831015610d275782610cdc91610be3565b610ce881600254610ba9565b7fffffffffffffffffffffffffffffffffffffffffffffffffffffffffffffffff8101908111610bb657610c9791610d1f91610bf0565b5f5490610be3565b60046040517fbb55fd27000000000000000000000000000000000000000000000000000000008152fd5b600154670de0b6b3a764000090818102918183041490151715610bb6575f54610cb691610bf0565b908115610cb957610d8b825f54610ba9565b610d9781600254610ba9565b7fffffffffffffffffffffffffffffffffffffffffffffffffffffffffffffffff8101908111610bb657610dd691610dce91610bf0565b600154610be3565b91670de0b6b3a764000090818402918483041484151715610bb657610cb691610bf0565b908115610cb9575f5480831015610d275782610e1591610be3565b610e2181600254610ba9565b7fffffffffffffffffffffffffffffffffffffffffffffffffffffffffffffffff8101908111610bb657610dd691610e5891610bf0565b60015490610be356fea264697066735822122077df8344ca9d796816c889201a8ced6c5be4284e7bce89d7502e77f9d0b0241f64736f6c63430008170033","linkReferences":{}},"methodIdentifiers":{"PRECISION()":"aaf5eb68","advanceBlocks(uint256)":"6c979157","baseReserve()":"dfdf2a72","cumulativeCarryIndex()":"77fac304","currentBlock()":"e12ed13c","decreaseOpenInterest(bool,uint256)":"4e1587f6","engine()":"c9d4623f","executeCloseLong(uint256)":"ca438c71","executeCloseShort(uint256)":"4cb31779","executeOpenLong(uint256)":"097870ae","executeOpenShort(uint256)":"c4b0340a","factory()":"c45a0155","getMarkPrice()":"60409632","increaseOpenInterest(bool,uint256)":"01a828a3","k()":"b4f40c61","lastFundingBlock()":"a40f1e00","longOpenInterest()":"97fb7289","quoteReserve()":"9da771f4","setEngine(address)":"0e830e49","shortOpenInterest()":"f67908b5","simulateCloseLong(uint256)":"972fcff3","simulateCloseShort(uint256)":"edbae33a","simulateOpenLong(uint256)":"15f54f9a","simulateOpenShort(uint256)":"4338ae47","updateFundingState(int256,uint256)":"19a65533"},"id":34}