{"abi":[{"type":"constructor","inputs":[{"name":"_collateralToken","type":"address","internalType":"address"},{"name":"_market","type":"address","internalType":"contract PerpMarket"},{"name":"_positionManager","type":"address","internalType":"contract PositionManager"},{"name":"_fundingManager","type":"address","internalType":"contract FundingManager"},{"name":"_liquidationEngine","type":"address","internalType":"contract LiquidationEngine"}],"stateMutability":"nonpayable"},{"type":"function","name":"MAX_LEVERAGE","inputs":[],"outputs":[{"name":"","type":"uint256","internalType":"uint256"}],"stateMutability":"view"},{"type":"function","name":"PRECISION","inputs":[],"outputs":[{"name":"","type":"uint256","internalType":"uint256"}],"stateMutability":"view"},{"type":"function","name":"USDC_TO_INTERNAL","inputs":[],"outputs":[{"name":"","type":"uint256","internalType":"uint256"}],"stateMutability":"view"},{"type":"function","name":"closePosition","inputs":[{"name":"positionId","type":"uint256","internalType":"uint256"}],"outputs":[{"name":"totalPnl","type":"int256","internalType":"int256"}],"stateMutability":"nonpayable"},{"type":"function","name":"collateralToken","inputs":[],"outputs":[{"name":"","type":"address","internalType":"contract IERC20"}],"stateMutability":"view"},{"type":"function","name":"deposit","inputs":[{"name":"amount","type":"uint256","internalType":"uint256"}],"outputs":[],"stateMutability":"nonpayable"},{"type":"function","name":"fundingManager","inputs":[],"outputs":[{"name":"","type":"address","internalType":"contract FundingManager"}],"stateMutability":"view"},{"type":"function","name":"getFundBalances","inputs":[],"outputs":[{"name":"trade","type":"uint256","internalType":"uint256"},{"name":"insurance","type":"uint256","internalType":"uint256"},{"name":"protocol","type":"uint256","internalType":"uint256"}],"stateMutability":"view"},{"type":"function","name":"getWalletBalance","inputs":[{"name":"user","type":"address","internalType":"address"}],"outputs":[{"name":"","type":"uint256","internalType":"uint256"}],"stateMutability":"view"},{"type":"function","name":"insuranceFund","inputs":[],"outputs":[{"name":"","type":"uint256","internalType":"uint256"}],"stateMutability":"view"},{"type":"function","name":"liquidate","inputs":[{"name":"positionId","type":"uint256","internalType":"uint256"}],"outputs":[],"stateMutability":"nonpayable"},{"type":"function","name":"liquidationEngine","inputs":[],"outputs":[{"name":"","type":"address","internalType":"contract LiquidationEngine"}],"stateMutability":"view"},{"type":"function","name":"market","inputs":[],"outputs":[{"name":"","type":"address","internalType":"contract PerpMarket"}],"stateMutability":"view"},{"type":"function","name":"openPosition","inputs":[{"name":"isLong","type":"bool","internalType":"bool"},{"name":"totalToUse","type":"uint256","internalType":"uint256"},{"name":"leverage","type":"uint256","internalType":"uint256"}],"outputs":[{"name":"positionId","type":"uint256","internalType":"uint256"}],"stateMutability":"nonpayable"},{"type":"function","name":"positionManager","inputs":[],"outputs":[{"name":"","type":"address","internalType":"contract PositionManager"}],"stateMutability":"view"},{"type":"function","name":"protocolFees","inputs":[],"outputs":[{"name":"","type":"uint256","internalType":"uint256"}],"stateMutability":"view"},{"type":"function","name":"tradeFund","inputs":[],"outputs":[{"name":"","type":"uint256","internalType":"uint256"}],"stateMutability":"view"},{"type":"function","name":"userWallets","inputs":[{"name":"","type":"address","internalType":"address"}],"outputs":[{"name":"","type":"uint256","internalType":"uint256"}],"stateMutability":"view"},{"type":"function","name":"withdraw","inputs":[{"name":"amount","type":"uint256","internalType":"uint256"}],"outputs":[],"stateMutability":"nonpayable"},{"type":"event","name":"Deposit","inputs":[{"name":"user","type":"address","indexed":true,"internalType":"address"},{"name":"amount","type":"uint256","indexed":false,"internalType":"uint256"}],"anonymous":false},{"type":"event","name":"PositionClosed","inputs":[{"name":"positionId","type":"uint256","indexed":true,"internalType":"uint256"},{"name":"user","type":"address","indexed":true,"internalType":"address"},{"name":"totalPnl","type":"int256","indexed":false,"internalType":"int256"},{"name":"avgClosePrice","type":"uint256","indexed":false,"internalType":"uint256"}],"anonymous":false},{"type":"event","name":"PositionLiquidated","inputs":[{"name":"positionId","type":"uint256","indexed":true,"internalType":"uint256"},{"name":"user","type":"address","indexed":true,"internalType":"address"},{"name":"liquidator","type":"address","indexed":true,"internalType":"address"},{"name":"liqFee","type":"uint256","indexed":false,"internalType":"uint256"}],"anonymous":false},{"type":"event","name":"PositionOpened","inputs":[{"name":"positionId","type":"uint256","indexed":true,"internalType":"uint256"},{"name":"user","type":"address","indexed":true,"internalType":"address"},{"name":"isLong","type":"bool","indexed":true,"internalType":"bool"},{"name":"totalToUse","type":"uint256","indexed":false,"internalType":"uint256"},{"name":"margin","type":"uint256","indexed":false,"internalType":"uint256"},{"name":"fee","type":"uint256","indexed":false,"internalType":"uint256"},{"name":"leverage","type":"uint256","indexed":false,"internalType":"uint256"},{"name":"baseSize","type":"uint256","indexed":false,"internalType":"uint256"},{"name":"entryPrice","type":"uint256","indexed":false,"internalType":"uint256"}],"anonymous":false},{"type":"event","name":"Withdraw","inputs":[{"name":"user","type":"address","indexed":true,"internalType":"address"},{"name":"amount","type":"uint256","indexed":false,"internalType":"uint256"}],"anonymous":false},{"type":"error","name":"InsufficientBalance","inputs":[]},{"type":"error","name":"InvalidAmount","inputs":[]},{"type":"error","name":"InvalidLeverage","inputs":[]},{"type":"error","name":"NotLiquidatable","inputs":[]},{"type":"error","name":"NotPositionOwner","inputs":[]},{"type":"error","name":"PositionNotFound","inputs":[]},{"type":"error","name":"ReentrancyGuardReentrantCall","inputs":[]},{"type":"error","name":"SafeERC20FailedOperation","inputs":[{"name":"token","type":"address","internalType":"address"}]}],"bytecode":{"object":"0x61012034620001fe57601f62002a3038819003918201601f19168301916001600160401b03831184841017620002025780849260a094604052833981010312620001fe5780516001600160a01b03919082811690819003620001fe5760208201518381168103620001fe576040830151918483168303620001fe576060840151938585168503620001fe57608001519485168503620001fe5760017f9b779b17422d0df92223018b32b4d1fa46e071723d6817e2486d003becc55f005560805260a05260c05260e0526101009081526040516128199182620002178339608051828181610b0f01528181610cdd0152612313015260a05182818161038c015281816103eb01528181610479015281816104ad0152818161050d0152818161056b0152818161063e015281816106a9015281816108e701528181610e85015281816115a601528181611759015281816118960152818161194c0152818161199401528181611a0801528181611a8f01528181611b1e01528181611baa01528181611d6f01528181611dd3015261215f015260c05182818161024d015281816105f601528181610d98015281816116150152818161171d0152818161182701528181611e310152611eaf015260e05182818161041901528181610eae015281816118d80152612504015251818181611684015281816117a30152611c950152f35b5f80fd5b634e487b7160e01b5f52604160045260245ffdfe6080806040526004361015610012575f80fd5b5f905f3560e01c90816304baed9e146124bc5750806310b6f3be146124705780631ad8b03b1461243557806327b0bea9146123fa5780632e1a7d4d146122a7578063415f1240146116a857806344bf3c721461163957806363e6ffdd1461012f578063791b98bc146115ca57806380f556051461155b5780639b45ec9714611519578063a126d60114610d42578063aaf5eb6814610d01578063b2016bd414610c92578063b6b55f2514610acc578063b790230314610a90578063e325573114610199578063ed8ec1941461012f5763fe612feb146100ef575f80fd5b3461012c57807ffffffffffffffffffffffffffffffffffffffffffffffffffffffffffffffffc36011261012c57602060405164e8d4a510008152f35b80fd5b503461012c5760207ffffffffffffffffffffffffffffffffffffffffffffffffffffffffffffffffc36011261012c5760043573ffffffffffffffffffffffffffffffffffffffff81168091036101955781604091602093528083522054604051908152f35b5080fd5b503461012c5760607ffffffffffffffffffffffffffffffffffffffffffffffffffffffffffffffffc36011261012c5760043515156004350361012c576101de612789565b60243515610a6657604435158015610a52575b610a2857338152806020526024356040822054106109fe5773ffffffffffffffffffffffffffffffffffffffff6040517fbe515fcb000000000000000000000000000000000000000000000000000000008152602081600481857f0000000000000000000000000000000000000000000000000000000000000000165afa9081156108465783916109cc575b50670de0b6b3a764000061029382604435612528565b04670de0b6b3a7640000019081670de0b6b3a76400001161099f57670de0b6b3a764000060243502916024358304670de0b6b3a76400000361097257801561094557670de0b6b3a76400006102f8816102f0604435858804612528565b049384612528565b0433865285602052604086206103116024358254612568565b905561032182850460015461277c565b60015561034b6103438260011c61033a8160025461277c565b60025583612568565b60035461277c565b600355600435156108b157604051927f097870ae000000000000000000000000000000000000000000000000000000008452600484015260408360248189897f0000000000000000000000000000000000000000000000000000000000000000165af180156108a65786938791610881575b5092915b866040517fe98c11fa000000000000000000000000000000000000000000000000000000008152877f00000000000000000000000000000000000000000000000000000000000000001660048201526040816024818b7f0000000000000000000000000000000000000000000000000000000000000000165afa9081156107bb578291610851575b506040517fe12ed13c0000000000000000000000000000000000000000000000000000000081526020816004818c7f0000000000000000000000000000000000000000000000000000000000000000165afa908115610846578391610811575b50887f0000000000000000000000000000000000000000000000000000000000000000163b1561077c57604051917f19a65533000000000000000000000000000000000000000000000000000000008352600483015260248201528181604481838c7f0000000000000000000000000000000000000000000000000000000000000000165af180156107bb576107fd575b50604051967f77fac304000000000000000000000000000000000000000000000000000000008852602088600481847f0000000000000000000000000000000000000000000000000000000000000000165afa9788156107bb5782986107c6575b50604051977f63b64a180000000000000000000000000000000000000000000000000000000089523360048a0152600435151560248a01528560448a01528660648a015283880460848a015260a489015260208860c48185857f0000000000000000000000000000000000000000000000000000000000000000165af19788156107bb578298610780575b50670de0b6b3a764000061063a8787612528565b04817f0000000000000000000000000000000000000000000000000000000000000000163b1561077c576040517f01a828a300000000000000000000000000000000000000000000000000000000815260048035151590820152602481019190915291908290604490829084907f0000000000000000000000000000000000000000000000000000000000000000165af1801561077157610759575b5060209650604051946024358652048685015260408401526044356060840152608083015260a0820152600435151590827fb71be4456bfcc32ca9158276b8e77c79a74fed2abefc1a26fe885c548e0e106660c03393a460017f9b779b17422d0df92223018b32b4d1fa46e071723d6817e2486d003becc55f0055604051908152f35b6107638891612575565b61076d57866106d6565b8680fd5b6040513d8a823e3d90fd5b8280fd5b915096506020813d6020116107b3575b8161079d602093836125b6565b810103126107af57879051965f610626565b5f80fd5b3d9150610790565b6040513d84823e3d90fd5b915096506020813d6020116107f5575b816107e3602093836125b6565b810103126107af57879051965f61059b565b3d91506107d6565b61080690612575565b61076d57865f61053a565b9250506020823d60201161083e575b8161082d602093836125b6565b810103126107af578891515f6104a9565b3d9150610820565b6040513d85823e3d90fd5b610873915060403d60401161087a575b61086b81836125b6565b8101906126c9565b505f610449565b503d610861565b905061089d91935060403d60401161087a5761086b81836125b6565b9290925f6103bd565b6040513d88823e3d90fd5b604051927fc4b0340a000000000000000000000000000000000000000000000000000000008452600484015260408360248189897f0000000000000000000000000000000000000000000000000000000000000000165af180156108a65786938791610920575b5092916103c1565b905061093c91935060403d60401161087a5761086b81836125b6565b9290925f610918565b7f4e487b71000000000000000000000000000000000000000000000000000000005f52601260045260245ffd5b6024857f4e487b710000000000000000000000000000000000000000000000000000000081526011600452fd5b6024847f4e487b710000000000000000000000000000000000000000000000000000000081526011600452fd5b90506020813d6020116109f6575b816109e7602093836125b6565b810103126107af57515f61027d565b3d91506109da565b60046040517ff4d678b8000000000000000000000000000000000000000000000000000000008152fd5b60046040517f7fd13972000000000000000000000000000000000000000000000000000000008152fd5b506801a055690d9db80000604435116101f1565b60046040517f2c5211c6000000000000000000000000000000000000000000000000000000008152fd5b503461012c57807ffffffffffffffffffffffffffffffffffffffffffffffffffffffffffffffffc36011261012c576020600254604051908152f35b503461012c5760207ffffffffffffffffffffffffffffffffffffffffffffffffffffffffffffffffc36011261012c57600435610b07612789565b8015610a66577f0000000000000000000000000000000000000000000000000000000000000000604051907f23b872dd00000000000000000000000000000000000000000000000000000000845233600452306024528260445260208460648180855af16001855114811615610c73575b826040528460605215610c3057505064e8d4a5100080820291820403610c03573382528160205260408220610bae82825461277c565b90556040519081527fe1fffcc4923d04b559f4d29a8bfc6cda04eb5b0d3c460751c2402c5c5cc9109c60203392a260017f9b779b17422d0df92223018b32b4d1fa46e071723d6817e2486d003becc55f005580f35b6024827f4e487b710000000000000000000000000000000000000000000000000000000081526011600452fd5b7f5274afe700000000000000000000000000000000000000000000000000000000825273ffffffffffffffffffffffffffffffffffffffff166004820152602490fd5b6001811516610c8957813b15153d151616610b78565b823d86823e3d90fd5b503461012c57807ffffffffffffffffffffffffffffffffffffffffffffffffffffffffffffffffc36011261012c57602060405173ffffffffffffffffffffffffffffffffffffffff7f0000000000000000000000000000000000000000000000000000000000000000168152f35b503461012c57807ffffffffffffffffffffffffffffffffffffffffffffffffffffffffffffffffc36011261012c576020604051670de0b6b3a76400008152f35b503461012c57602090817ffffffffffffffffffffffffffffffffffffffffffffffffffffffffffffffffc36011261012c57600435610d7f612789565b73ffffffffffffffffffffffffffffffffffffffff90817f00000000000000000000000000000000000000000000000000000000000000001692604051937feb02c3010000000000000000000000000000000000000000000000000000000085528260048601526101609460249086818381865afa96871561126b5784976114ea575b505084878701511633036114c0576040517fa32fce3b00000000000000000000000000000000000000000000000000000000815284600482015287818381865afa90811561126b578491611487575b501561145d576040517fe98c11fa0000000000000000000000000000000000000000000000000000000081526040818381897f000000000000000000000000000000000000000000000000000000000000000016998a60048301527f0000000000000000000000000000000000000000000000000000000000000000165afa90811561126b57849161143d575b506040517fe12ed13c00000000000000000000000000000000000000000000000000000000815288816004818a5afa908115611377578591611410575b50863b1561140c57604051917f19a655330000000000000000000000000000000000000000000000000000000083526004830152828201528381604481838a5af1801561126b579084916113f8575b50506040860180519096901561138257606081015195604051967fca438c710000000000000000000000000000000000000000000000000000000088526004880152604087848188855af180156113775785978691611352575b50965b88511561133f5760a0830151610fdc916126df565b604051907f604096320000000000000000000000000000000000000000000000000000000082528a82600481865afa8015611334578790611305575b6110339250670de0b6b3a76400009283916060870151612528565b046040517f77fac3040000000000000000000000000000000000000000000000000000000081528c81600481885afa9081156112fa57918c91878b9485926112be575b509260a0966110d46110ee9796946110996110da9560e06110e8990151906126df565b9351156112b6577fffffffffffffffffffffffffffffffffffffffffffffffffffffffffffffffff935b958612801596906112a75790612528565b04612723565b901561128057600190612723565b90612761565b9860c0840161110b6111018c8351612761565b9151600154612568565b6001558781131561127a57338852878c5261112b6040892091825461277c565b90555b51151592015191813b15611276576040517f4e1587f60000000000000000000000000000000000000000000000000000000081529015156004820152602481019290925284908290604490829084905af1801561126b57908491611257575b5050813b1561077c576001606484928360405195869485937fe02cea030000000000000000000000000000000000000000000000000000000085528a60048601528401528a60448401525af180156107bb57611243575b505060405191838352848301527f7a0db93fde80eea902af70e15fa590136ec8ea44fbc9de1a71175446513213f560403393a360017f9b779b17422d0df92223018b32b4d1fa46e071723d6817e2486d003becc55f0055604051908152f35b61124d8291612575565b61012c57806111e4565b61126090612575565b61077c57825f61118d565b6040513d86823e3d90fd5b8580fd5b5061112e565b7fffffffffffffffffffffffffffffffffffffffffffffffffffffffffffffffff90612723565b6112b0906126f7565b90612528565b6001936110c3565b959450505090508c83813d83116112f3575b6112da81836125b6565b810103126107af579151909188918c91908760a0611076565b503d6112d0565b6040513d8b823e3d90fd5b508a82813d831161132d575b61131b81836125b6565b810103126107af576110339151611018565b503d611311565b6040513d89823e3d90fd5b61134d9060a08401516126df565b610fdc565b905061136e91975060403d60401161087a5761086b81836125b6565b9690965f610fc4565b6040513d87823e3d90fd5b606081015195604051967f4cb317790000000000000000000000000000000000000000000000000000000088526004880152604087848188855af1801561137757859786916113d3575b5096610fc7565b90506113ef91975060403d60401161087a5761086b81836125b6565b9690965f6113cc565b61140190612575565b61077c57825f610f6a565b8480fd5b90508881813d8311611436575b61142781836125b6565b810103126107af57515f610f1b565b503d61141d565b611456915060403d60401161087a5761086b81836125b6565b505f610ede565b60046040517f6ec9be11000000000000000000000000000000000000000000000000000000008152fd5b90508781813d83116114b9575b61149e81836125b6565b810103126114b5576114af906125f7565b5f610e51565b8380fd5b503d611494565b60046040517f70d645e3000000000000000000000000000000000000000000000000000000008152fd5b61150a929750803d10611512575b61150281836125b6565b810190612604565b945f80610e02565b503d6114f8565b503461012c57807ffffffffffffffffffffffffffffffffffffffffffffffffffffffffffffffffc36011261012c5760206040516801a055690d9db800008152f35b503461012c57807ffffffffffffffffffffffffffffffffffffffffffffffffffffffffffffffffc36011261012c57602060405173ffffffffffffffffffffffffffffffffffffffff7f0000000000000000000000000000000000000000000000000000000000000000168152f35b503461012c57807ffffffffffffffffffffffffffffffffffffffffffffffffffffffffffffffffc36011261012c57602060405173ffffffffffffffffffffffffffffffffffffffff7f0000000000000000000000000000000000000000000000000000000000000000168152f35b503461012c57807ffffffffffffffffffffffffffffffffffffffffffffffffffffffffffffffffc36011261012c57602060405173ffffffffffffffffffffffffffffffffffffffff7f0000000000000000000000000000000000000000000000000000000000000000168152f35b50346107af5760207ffffffffffffffffffffffffffffffffffffffffffffffffffffffffffffffffc3601126107af576116e0612789565b6040517fa02fd4ae00000000000000000000000000000000000000000000000000000000815273ffffffffffffffffffffffffffffffffffffffff7f000000000000000000000000000000000000000000000000000000000000000016600482015273ffffffffffffffffffffffffffffffffffffffff7f0000000000000000000000000000000000000000000000000000000000000000166024820152600435604482015260208160648173ffffffffffffffffffffffffffffffffffffffff7f0000000000000000000000000000000000000000000000000000000000000000165afa9081156121c9575f9161226d575b5015612243576040517feb02c301000000000000000000000000000000000000000000000000000000008152600435600482015261016090818160248173ffffffffffffffffffffffffffffffffffffffff7f0000000000000000000000000000000000000000000000000000000000000000165afa9182156121c9575f92612226575b50506040517fe98c11fa00000000000000000000000000000000000000000000000000000000815273ffffffffffffffffffffffffffffffffffffffff7f000000000000000000000000000000000000000000000000000000000000000016600482015260408160248173ffffffffffffffffffffffffffffffffffffffff7f0000000000000000000000000000000000000000000000000000000000000000165afa9081156121c9575f91612206575b506040517fe12ed13c00000000000000000000000000000000000000000000000000000000815260208160048173ffffffffffffffffffffffffffffffffffffffff7f0000000000000000000000000000000000000000000000000000000000000000165afa9081156121c9575f916121d4575b5073ffffffffffffffffffffffffffffffffffffffff7f0000000000000000000000000000000000000000000000000000000000000000163b156107af57604051917f19a65533000000000000000000000000000000000000000000000000000000008352600483015260248201525f816044818373ffffffffffffffffffffffffffffffffffffffff7f0000000000000000000000000000000000000000000000000000000000000000165af180156121c9576121b6575b50604081015115612110576060810151604051907fca438c7100000000000000000000000000000000000000000000000000000000825260048201526040816024818673ffffffffffffffffffffffffffffffffffffffff7f0000000000000000000000000000000000000000000000000000000000000000165af19081156108465783916120f0575b50905b6040810151156120dc5782611adb60a0830151846126df565b6040517f6040963200000000000000000000000000000000000000000000000000000000815260208160048173ffffffffffffffffffffffffffffffffffffffff7f0000000000000000000000000000000000000000000000000000000000000000165afa9081156108465783916120a3575b50611b66670de0b6b3a7640000916060860151612528565b046040517f77fac30400000000000000000000000000000000000000000000000000000000815260208160048173ffffffffffffffffffffffffffffffffffffffff7f0000000000000000000000000000000000000000000000000000000000000000165afa90811561126b578491612068575b50611c4292916110da611bf56110e89360e0890151906126df565b60408801519092901561205457670de0b6b3a76400006110d47fffffffffffffffffffffffffffffffffffffffffffffffffffffffffffffffff925b898612801596906112a75790612528565b611c508160c0850151612761565b93604051907f56cdf82300000000000000000000000000000000000000000000000000000000825260208260048173ffffffffffffffffffffffffffffffffffffffff7f0000000000000000000000000000000000000000000000000000000000000000165afa91821561126b57849261201b575b50670de0b6b3a764000091611cd991612528565b0493611ceb60c0850151600154612568565b6001558480821315611f7857611d0091612568565b73ffffffffffffffffffffffffffffffffffffffff602085015116835282602052611d306040842091825461277c565b90553382528160205260408220611d4885825461277c565b90555b6040830151151560a08401519073ffffffffffffffffffffffffffffffffffffffff7f0000000000000000000000000000000000000000000000000000000000000000163b156114b5576040517f4e1587f6000000000000000000000000000000000000000000000000000000008152901515600482015260248101919091528281604481837f000000000000000000000000000000000000000000000000000000000000000073ffffffffffffffffffffffffffffffffffffffff165af1908115610846578391611f64575b505073ffffffffffffffffffffffffffffffffffffffff7f0000000000000000000000000000000000000000000000000000000000000000163b1561019557604051907fe02cea03000000000000000000000000000000000000000000000000000000008252600435600483015260026024830152604482015281816064818373ffffffffffffffffffffffffffffffffffffffff7f0000000000000000000000000000000000000000000000000000000000000000165af180156107bb57611f50575b5050602073ffffffffffffffffffffffffffffffffffffffff9101511660405191825233917f9f843df2e2b0c791e0c3993c883e11d06a6fcc960fb3a2765a6f4ab8a1bd07ca602060043592a460017f9b779b17422d0df92223018b32b4d1fa46e071723d6817e2486d003becc55f005580f35b611f5990612575565b61077c57825f611edc565b611f6d90612575565b61019557815f611e18565b83821315611f9e575033835282602052611f976040842091825461277c565b9055611d4b565b90611fa8906126f7565b600254611fb5838361277c565b8110611fea5750611fd191611fc99161277c565b600254612568565b6002553382528160205260408220611f9785825461277c565b91505080611ff9575b50611d4b565b3383528260205261200f6040842091825461277c565b9055816002555f611ff3565b935090506020833d60201161204c575b81612038602093836125b6565b810103126107af5791518592611cd9611cc5565b3d915061202b565b670de0b6b3a76400006110d4600192611c31565b935050906020833d60201161209b575b81612085602093836125b6565b810103126107af57915185929190611c42611bda565b3d9150612078565b9250506020823d6020116120d4575b816120bf602093836125b6565b810103126107af579051849190611b66611b4e565b3d91506120b2565b826120eb8360a08401516126df565b611adb565b612109915060403d60401161087a5761086b81836125b6565b505f611abf565b6060810151604051907f4cb3177900000000000000000000000000000000000000000000000000000000825260048201526040816024818673ffffffffffffffffffffffffffffffffffffffff7f0000000000000000000000000000000000000000000000000000000000000000165af1908115610846578391612196575b5090611ac2565b6121af915060403d60401161087a5761086b81836125b6565b505f61218f565b6121c1919250612575565b5f905f611a35565b6040513d5f823e3d90fd5b90506020813d6020116121fe575b816121ef602093836125b6565b810103126107af57515f61197c565b3d91506121e2565b61221f915060403d60401161087a5761086b81836125b6565b505f611908565b61223c9250803d106115125761150281836125b6565b5f80611857565b60046040517fddeb79ba000000000000000000000000000000000000000000000000000000008152fd5b90506020813d60201161229f575b81612288602093836125b6565b810103126107af57612299906125f7565b5f6117d3565b3d915061227b565b346107af5760207ffffffffffffffffffffffffffffffffffffffffffffffffffffffffffffffffc3601126107af576004356122e1612789565b8015610a6657335f525f6020528060405f2054106109fe57335f525f60205260405f2061230f828254612568565b90557f0000000000000000000000000000000000000000000000000000000000000000604051907fa9059cbb000000000000000000000000000000000000000000000000000000005f523360045264e8d4a51000830460245260205f60448180855af160015f51148116156123db575b8260405215610c3057826040519081527f884edad9ce6fa2440d8a54cc123490eb96d2768479d49ff9c7366125a942436460203392a260017f9b779b17422d0df92223018b32b4d1fa46e071723d6817e2486d003becc55f0055005b60018115166123f157813b15153d15161661237f565b823d5f823e3d90fd5b346107af575f7ffffffffffffffffffffffffffffffffffffffffffffffffffffffffffffffffc3601126107af576020600154604051908152f35b346107af575f7ffffffffffffffffffffffffffffffffffffffffffffffffffffffffffffffffc3601126107af576020600354604051908152f35b346107af575f7ffffffffffffffffffffffffffffffffffffffffffffffffffffffffffffffffc3601126107af5760606001546002546003549060405192835260208301526040820152f35b346107af575f7ffffffffffffffffffffffffffffffffffffffffffffffffffffffffffffffffc3601126107af5760209073ffffffffffffffffffffffffffffffffffffffff7f0000000000000000000000000000000000000000000000000000000000000000168152f35b8181029291811591840414171561253b57565b7f4e487b71000000000000000000000000000000000000000000000000000000005f52601160045260245ffd5b9190820391821161253b57565b67ffffffffffffffff811161258957604052565b7f4e487b71000000000000000000000000000000000000000000000000000000005f52604160045260245ffd5b90601f7fffffffffffffffffffffffffffffffffffffffffffffffffffffffffffffffe0910116810190811067ffffffffffffffff82111761258957604052565b519081151582036107af57565b809161016092839103126107af5760405191820182811067ffffffffffffffff8211176125895760405280518252602081015173ffffffffffffffffffffffffffffffffffffffff811681036107af576020830152612665604082016125f7565b6040830152606081015160608301526080810151608083015260a081015160a083015260c081015160c083015260e081015160e08301526101008082015190830152610120808201519060038210156107af57830152610140809101519082015290565b91908260409103126107af576020825192015190565b81810392915f13801582851316918412161761253b57565b7f8000000000000000000000000000000000000000000000000000000000000000811461253b575f0390565b81810292915f82127f800000000000000000000000000000000000000000000000000000000000000082141661253b57818405149015171561253b57565b9190915f838201938412911290801582169115161761253b57565b9190820180921161253b57565b7f9b779b17422d0df92223018b32b4d1fa46e071723d6817e2486d003becc55f0060028154146127b95760029055565b60046040517f3ee5aeb5000000000000000000000000000000000000000000000000000000008152fdfea264697066735822122057009322d63432cf2103c287ba6dd88189a9d6db1e8276409e84ddf10d0d16c264736f6c63430008170033","linkReferences":{}},"methodIdentifiers":{"MAX_LEVERAGE()":"9b45ec97","PRECISION()":"aaf5eb68","USDC_TO_INTERNAL()":"fe612feb","closePosition(uint256)":"a126d601","collateralToken()":"b2016bd4","deposit(uint256)":"b6b55f25","fundingManager()":"04baed9e","getFundBalances()":"10b6f3be","getWalletBalance(address)":"ed8ec194","insuranceFund()":"b7902303","liquidate(uint256)":"415f1240","liquidationEngine()":"44bf3c72","market()":"80f55605","openPosition(bool,uint256,uint256)":"e3255731","positionManager()":"791b98bc","protocolFees()":"1ad8b03b","tradeFund()":"27b0bea9","userWallets(address)":"63e6ffdd","withdraw(uint256)":"2e1a7d4d"},"id":36}