{"abi":[{"type":"constructor","inputs":[{"name":"_engine","type":"address","internalType":"address"},{"name":"_market","type":"address","internalType":"contract PerpMarket"}],"stateMutability":"nonpayable"},{"type":"function","name":"BUFFER_RATIO_1","inputs":[],"outputs":[{"name":"","type":"uint256","internalType":"uint256"}],"stateMutability":"view"},{"type":"function","name":"BUFFER_RATIO_2","inputs":[],"outputs":[{"name":"","type":"uint256","internalType":"uint256"}],"stateMutability":"view"},{"type":"function","name":"BUFFER_RATIO_3","inputs":[],"outputs":[{"name":"","type":"uint256","internalType":"uint256"}],"stateMutability":"view"},{"type":"function","name":"LEVERAGE_BUCKET_1_MAX","inputs":[],"outputs":[{"name":"","type":"uint256","internalType":"uint256"}],"stateMutability":"view"},{"type":"function","name":"LEVERAGE_BUCKET_2_MAX","inputs":[],"outputs":[{"name":"","type":"uint256","internalType":"uint256"}],"stateMutability":"view"},{"type":"function","name":"LEVERAGE_BUCKET_3_MAX","inputs":[],"outputs":[{"name":"","type":"uint256","internalType":"uint256"}],"stateMutability":"view"},{"type":"function","name":"PRECISION","inputs":[],"outputs":[{"name":"","type":"uint256","internalType":"uint256"}],"stateMutability":"view"},{"type":"function","name":"createPosition","inputs":[{"name":"user","type":"address","internalType":"address"},{"name":"isLong","type":"bool","internalType":"bool"},{"name":"baseSize","type":"uint256","internalType":"uint256"},{"name":"entryPrice","type":"uint256","internalType":"uint256"},{"name":"margin","type":"uint256","internalType":"uint256"},{"name":"carrySnapshot","type":"int256","internalType":"int256"}],"outputs":[{"name":"positionId","type":"uint256","internalType":"uint256"}],"stateMutability":"nonpayable"},{"type":"function","name":"engine","inputs":[],"outputs":[{"name":"","type":"address","internalType":"address"}],"stateMutability":"view"},{"type":"function","name":"factory","inputs":[],"outputs":[{"name":"","type":"address","internalType":"address"}],"stateMutability":"view"},{"type":"function","name":"getEffectiveOpenFeeRate","inputs":[],"outputs":[{"name":"feeRate","type":"uint256","internalType":"uint256"}],"stateMutability":"view"},{"type":"function","name":"getLiquidationBufferRatio","inputs":[{"name":"leverage","type":"uint256","internalType":"uint256"}],"outputs":[{"name":"","type":"uint256","internalType":"uint256"}],"stateMutability":"pure"},{"type":"function","name":"getPosition","inputs":[{"name":"positionId","type":"uint256","internalType":"uint256"}],"outputs":[{"name":"","type":"tuple","internalType":"struct PositionManager.Position","components":[{"name":"id","type":"uint256","internalType":"uint256"},{"name":"user","type":"address","internalType":"address"},{"name":"isLong","type":"bool","internalType":"bool"},{"name":"baseSize","type":"uint256","internalType":"uint256"},{"name":"entryPrice","type":"uint256","internalType":"uint256"},{"name":"entryNotional","type":"uint256","internalType":"uint256"},{"name":"margin","type":"uint256","internalType":"uint256"},{"name":"carrySnapshot","type":"int256","internalType":"int256"},{"name":"openBlock","type":"uint256","internalType":"uint256"},{"name":"status","type":"uint8","internalType":"enum PositionManager.PositionStatus"},{"name":"realizedPnl","type":"int256","internalType":"int256"}]}],"stateMutability":"view"},{"type":"function","name":"isPositionOpen","inputs":[{"name":"positionId","type":"uint256","internalType":"uint256"}],"outputs":[{"name":"","type":"bool","internalType":"bool"}],"stateMutability":"view"},{"type":"function","name":"market","inputs":[],"outputs":[{"name":"","type":"address","internalType":"contract PerpMarket"}],"stateMutability":"view"},{"type":"function","name":"nextPositionId","inputs":[],"outputs":[{"name":"","type":"uint256","internalType":"uint256"}],"stateMutability":"view"},{"type":"function","name":"positions","inputs":[{"name":"","type":"uint256","internalType":"uint256"}],"outputs":[{"name":"id","type":"uint256","internalType":"uint256"},{"name":"user","type":"address","internalType":"address"},{"name":"isLong","type":"bool","internalType":"bool"},{"name":"baseSize","type":"uint256","internalType":"uint256"},{"name":"entryPrice","type":"uint256","internalType":"uint256"},{"name":"entryNotional","type":"uint256","internalType":"uint256"},{"name":"margin","type":"uint256","internalType":"uint256"},{"name":"carrySnapshot","type":"int256","internalType":"int256"},{"name":"openBlock","type":"uint256","internalType":"uint256"},{"name":"status","type":"uint8","internalType":"enum PositionManager.PositionStatus"},{"name":"realizedPnl","type":"int256","internalType":"int256"}],"stateMutability":"view"},{"type":"function","name":"setEngine","inputs":[{"name":"_engine","type":"address","internalType":"address"}],"outputs":[],"stateMutability":"nonpayable"},{"type":"function","name":"simulateEquityIfClosed","inputs":[{"name":"positionId","type":"uint256","internalType":"uint256"}],"outputs":[{"name":"closeNotional","type":"uint256","internalType":"uint256"},{"name":"avgClosePrice","type":"uint256","internalType":"uint256"},{"name":"pnlTrade","type":"int256","internalType":"int256"},{"name":"carryPnl","type":"int256","internalType":"int256"},{"name":"totalPnl","type":"int256","internalType":"int256"},{"name":"equityIfClosed","type":"int256","internalType":"int256"}],"stateMutability":"view"},{"type":"function","name":"updatePositionStatus","inputs":[{"name":"positionId","type":"uint256","internalType":"uint256"},{"name":"newStatus","type":"uint8","internalType":"enum PositionManager.PositionStatus"},{"name":"realizedPnl","type":"int256","internalType":"int256"}],"outputs":[],"stateMutability":"nonpayable"},{"type":"event","name":"PositionCreated","inputs":[{"name":"positionId","type":"uint256","indexed":true,"internalType":"uint256"},{"name":"user","type":"address","indexed":true,"internalType":"address"},{"name":"isLong","type":"bool","indexed":true,"internalType":"bool"},{"name":"baseSize","type":"uint256","indexed":false,"internalType":"uint256"},{"name":"entryPrice","type":"uint256","indexed":false,"internalType":"uint256"},{"name":"entryNotional","type":"uint256","indexed":false,"internalType":"uint256"},{"name":"margin","type":"uint256","indexed":false,"internalType":"uint256"},{"name":"carrySnapshot","type":"int256","indexed":false,"internalType":"int256"},{"name":"openBlock","type":"uint256","indexed":false,"internalType":"uint256"}],"anonymous":false},{"type":"error","name":"EngineAlreadySet","inputs":[]},{"type":"error","name":"PositionNotFound","inputs":[]},{"type":"error","name":"PositionNotOpen","inputs":[]},{"type":"error","name":"Unauthorized","inputs":[]}],"bytecode":{"object":"0x60c0346100bc57601f61182c38819003918201601f19168301916001600160401b038311848410176100c05780849260409485528339810103126100bc5780516001600160a01b039190828116036100bc576020015190811681036100bc573360805260a052600160025560405161175790816100d582396080518181816105260152611238015260a0518181816106ba015281816107080152818161098d01528181610d0f01528181610ea30152818161104e01526114d90152f35b5f80fd5b634e487b7160e01b5f52604160045260245ffdfe6080806040526004361015610012575f80fd5b5f3560e01c9081630e830e49146111e85750806334e3621a146111a757806363b64a1814610db45780636bab7cab14610d73578063786ab30c14610d3357806380f5560514610cc557806387492d3e14610c85578063899346c714610c4a57806399fbab8814610b6f578063a23e48f514610b2f578063a32fce3b14610a2b578063aaf5eb68146109eb578063bc5b83d214610582578063be515fcb1461054a578063c45a0155146104dc578063c9d4623f1461048c578063db24e2a214610448578063e02cea0314610333578063e7259801146102f35763eb02c301146100f8575f80fd5b346102ef5760207ffffffffffffffffffffffffffffffffffffffffffffffffffffffffffffffffc3601126102ef576004355f61014060405161013a8161132a565b8281528260208201528260408201528260608201528260808201528260a08201528260c08201528260e082015282610100820152826101208201520152805f52600160205260405f2054156102c5575f52600160205261016060405f206009604051916101a68361132a565b8054835260ff600182015473ffffffffffffffffffffffffffffffffffffffff8116602086015260a01c16151560408401526002810154606084015260038101546080840152600481015460a0840152600581015460c0840152600681015460e0840152600781015461010084015261022a60ff60088301541661012085016113b5565b0154610140820152610140604051918051835273ffffffffffffffffffffffffffffffffffffffff6020820151166020840152604081015115156040840152606081015160608401526080810151608084015260a081015160a084015260c081015160c084015260e081015160e08401526101008101516101008401526102bb61012082015161012085019061131d565b0151610140820152f35b60046040517f6ec9be11000000000000000000000000000000000000000000000000000000008152fd5b5f80fd5b346102ef575f7ffffffffffffffffffffffffffffffffffffffffffffffffffffffffffffffffc3601126102ef57602060405167016345785d8a00008152f35b346102ef5760607ffffffffffffffffffffffffffffffffffffffffffffffffffffffffffffffffc3601126102ef5760243560038110156102ef5773ffffffffffffffffffffffffffffffffffffffff5f5416330361041e576004355f52600160205260405f2090600882019060ff82541660038110156103f1576103c7576103bb916113c1565b60096044359101555f80f35b60046040517f94e88a21000000000000000000000000000000000000000000000000000000008152fd5b7f4e487b71000000000000000000000000000000000000000000000000000000005f52602160045260245ffd5b60046040517f82b42900000000000000000000000000000000000000000000000000000000008152fd5b346102ef5760207ffffffffffffffffffffffffffffffffffffffffffffffffffffffffffffffffc3601126102ef5760206104846004356116de565b604051908152f35b346102ef575f7ffffffffffffffffffffffffffffffffffffffffffffffffffffffffffffffffc3601126102ef57602073ffffffffffffffffffffffffffffffffffffffff5f5416604051908152f35b346102ef575f7ffffffffffffffffffffffffffffffffffffffffffffffffffffffffffffffffc3601126102ef57602060405173ffffffffffffffffffffffffffffffffffffffff7f0000000000000000000000000000000000000000000000000000000000000000168152f35b346102ef575f7ffffffffffffffffffffffffffffffffffffffffffffffffffffffffffffffffc3601126102ef5760206104846114ab565b346102ef576020807ffffffffffffffffffffffffffffffffffffffffffffffffffffffffffffffffc3601126102ef576004355f526001815260405f20604051916105cc8361132a565b8154835260018201549173ffffffffffffffffffffffffffffffffffffffff938484168382015260ff604082019460a01c1615158452600282015494606082019586526003830154608083015260048301549460a0830195865260058401549360c0840194855260068101549360e081019485526007820154610100820152610140600960ff60088501541693610668610120850195866113b5565b01549101525160038110156103f1576103c75780511561095557865192604051937f972fcff30000000000000000000000000000000000000000000000000000000085526004850152604084602481867f0000000000000000000000000000000000000000000000000000000000000000165afa80156108d4575f945f91610920575b5093965b8251889015610910575061070490518861140e565b925b7f00000000000000000000000000000000000000000000000000000000000000001690604051987f60409632000000000000000000000000000000000000000000000000000000008a52878a600481865afa998a156108d4575f9a6108df575b509087600492610781670de0b6b3a76400009c8d925161130a565b0493604051938480927f77fac3040000000000000000000000000000000000000000000000000000000082525afa9182156108d4575f9261089e575b509160c0996107d5610819936108279695519061140e565b935115610893576108137fffffffffffffffffffffffffffffffffffffffffffffffffffffffffffffffff925b5f861280159690610884579061130a565b04611452565b901561085d57600190611452565b9161083d6108358484611490565b809551611490565b9460405196875286015260408501526060840152608083015260a0820152f35b7fffffffffffffffffffffffffffffffffffffffffffffffffffffffffffffffff90611452565b61088d90611426565b9061130a565b610813600192610802565b93929091508784813d83116108cd575b6108b88183611374565b810103126102ef5792519192919060c06107bd565b503d6108ae565b6040513d5f823e3d90fd5b919099508782813d8311610909575b6108f88183611374565b810103126102ef5790519887610766565b503d6108ee565b61091a915161140e565b92610706565b905061094591945060403d60401161094e575b61093d8183611374565b8101906113f8565b939093896106eb565b503d610933565b865192604051937fedbae33a0000000000000000000000000000000000000000000000000000000085526004850152604084602481867f0000000000000000000000000000000000000000000000000000000000000000165afa80156108d4575f945f916109c6575b5093966106ef565b90506109e291945060403d60401161094e5761093d8183611374565b939093896109be565b346102ef575f7ffffffffffffffffffffffffffffffffffffffffffffffffffffffffffffffffc3601126102ef576020604051670de0b6b3a76400008152f35b346102ef5760207ffffffffffffffffffffffffffffffffffffffffffffffffffffffffffffffffc3601126102ef576004355f52600160205260405f20604051610a748161132a565b8154815260ff600183015473ffffffffffffffffffffffffffffffffffffffff8116602084015260a01c16151560408201526002820154606082015260038201546080820152600482015460a0820152600582015460c0820152600682015460e08201526007820154610100820152600960ff60088401541692610afd610120840194856113b5565b015461014082015251151580610b1b575b6020906040519015158152f35b505160038110156103f15760209015610b0e565b346102ef575f7ffffffffffffffffffffffffffffffffffffffffffffffffffffffffffffffffc3601126102ef576020604051678ac7230489e800008152f35b346102ef5760207ffffffffffffffffffffffffffffffffffffffffffffffffffffffffffffffffc3601126102ef576004355f52600160205261016060405f20805490610c4260018201549160028101546003820154600483015460058401549060068501549260078601549460ff60098160088a015416980154996040519b8c5273ffffffffffffffffffffffffffffffffffffffff811660208d015260a01c16151560408b015260608a0152608089015260a088015260c087015260e086015261010085015261012084019061131d565b610140820152f35b346102ef575f7ffffffffffffffffffffffffffffffffffffffffffffffffffffffffffffffffc3601126102ef576020600254604051908152f35b346102ef575f7ffffffffffffffffffffffffffffffffffffffffffffffffffffffffffffffffc3601126102ef5760206040516702c68af0bb1400008152f35b346102ef575f7ffffffffffffffffffffffffffffffffffffffffffffffffffffffffffffffffc3601126102ef57602060405173ffffffffffffffffffffffffffffffffffffffff7f0000000000000000000000000000000000000000000000000000000000000000168152f35b346102ef575f7ffffffffffffffffffffffffffffffffffffffffffffffffffffffffffffffffc3601126102ef576020604051670429d069189e00008152f35b346102ef575f7ffffffffffffffffffffffffffffffffffffffffffffffffffffffffffffffffc3601126102ef5760206040516801a055690d9db800008152f35b346102ef5760c07ffffffffffffffffffffffffffffffffffffffffffffffffffffffffffffffffc3601126102ef57610deb6112e7565b6024359081151582036102ef5773ffffffffffffffffffffffffffffffffffffffff5f5416330361041e57600254907fffffffffffffffffffffffffffffffffffffffffffffffffffffffffffffffff821461117a5760018201600255670de0b6b3a7640000610e5f60643560443561130a565b046040517fe12ed13c00000000000000000000000000000000000000000000000000000000815260208160048173ffffffffffffffffffffffffffffffffffffffff7f0000000000000000000000000000000000000000000000000000000000000000165afa9081156108d4575f91611148575b50604051610ee08161132a565b84815273ffffffffffffffffffffffffffffffffffffffff84166020820152604081019186151583526060820190604435825260808301606435815260a0840186815260c0850190608435825260e086019260a435845261010087019485526101208701955f87526101408801975f89528c5f52600160205260405f209981518b5573ffffffffffffffffffffffffffffffffffffffff602060018d01930151167fffffffffffffffffffffff00000000000000000000000000000000000000000074ff000000000000000000000000000000000000000084549351151560a01b16921617179055516002890155516003880155516004870155516005860155516006850155516007840155519060038210156103f157611006600992600885016113c1565b51910155604051937fe12ed13c00000000000000000000000000000000000000000000000000000000855260208560048173ffffffffffffffffffffffffffffffffffffffff7f0000000000000000000000000000000000000000000000000000000000000000165afa9485156108d4575f956110f4575b507fb20da72397115be24b6d1f7dabd8a256df6c4aff81c20075404c76417fbb2d1260c073ffffffffffffffffffffffffffffffffffffffff86936020986040519660443588526064358b8901526040880152608435606088015260a435608088015260a08701521515951693a4604051908152f35b94506020853d602011611140575b8161110f60209383611374565b810103126102ef579351937fb20da72397115be24b6d1f7dabd8a256df6c4aff81c20075404c76417fbb2d1261107e565b3d9150611102565b90506020813d602011611172575b8161116360209383611374565b810103126102ef575185610ed3565b3d9150611156565b7f4e487b71000000000000000000000000000000000000000000000000000000005f52601160045260245ffd5b346102ef575f7ffffffffffffffffffffffffffffffffffffffffffffffffffffffffffffffffc3601126102ef5760206040516801158e460913d000008152f35b346102ef5760207ffffffffffffffffffffffffffffffffffffffffffffffffffffffffffffffffc3601126102ef5761121f6112e7565b73ffffffffffffffffffffffffffffffffffffffff91827f00000000000000000000000000000000000000000000000000000000000000001633036112bf57505f5491808316611295577fffffffffffffffffffffffff000000000000000000000000000000000000000091169116175f555f80f35b60046040517fe6123baf000000000000000000000000000000000000000000000000000000008152fd5b807f82b429000000000000000000000000000000000000000000000000000000000060049252fd5b6004359073ffffffffffffffffffffffffffffffffffffffff821682036102ef57565b8181029291811591840414171561117a57565b9060038210156103f15752565b610160810190811067ffffffffffffffff82111761134757604052565b7f4e487b71000000000000000000000000000000000000000000000000000000005f52604160045260245ffd5b90601f7fffffffffffffffffffffffffffffffffffffffffffffffffffffffffffffffe0910116810190811067ffffffffffffffff82111761134757604052565b60038210156103f15752565b9060038110156103f15760ff7fffffffffffffffffffffffffffffffffffffffffffffffffffffffffffffff008354169116179055565b91908260409103126102ef576020825192015190565b81810392915f13801582851316918412161761117a57565b7f8000000000000000000000000000000000000000000000000000000000000000811461117a575f0390565b81810292915f82127f800000000000000000000000000000000000000000000000000000000000000082141661117a57818405149015171561117a57565b9190915f838201938412911290801582169115161761117a57565b6040517f97fb72890000000000000000000000000000000000000000000000000000000081526020906004907f000000000000000000000000000000000000000000000000000000000000000073ffffffffffffffffffffffffffffffffffffffff1683828481845afa9182156108d457839185915f946116ac575b50604051928380927ff67908b50000000000000000000000000000000000000000000000000000000082525afa9384156108d4575f9461167c575b50508281019283821161163257831561166d5761157e9161140e565b5f811261165e57915b670de0b6b3a76400009283810290808204851490151715611632570482810290808204841490151715611606578290048201908183116115da5766038d7ea4c6800091808302928304036115da57500490565b6011907f4e487b71000000000000000000000000000000000000000000000000000000005f525260245ffd5b6011827f4e487b71000000000000000000000000000000000000000000000000000000005f525260245ffd5b6011837f4e487b71000000000000000000000000000000000000000000000000000000005f525260245ffd5b61166790611426565b91611587565b5050505066038d7ea4c6800090565b9080929450813d83116116a5575b6116948183611374565b810103126102ef5751915f80611562565b503d61168a565b9250925081813d83116116d7575b6116c48183611374565b810103126102ef5783839151925f611527565b503d6116ba565b678ac7230489e8000081116116fa575067016345785d8a000090565b6801158e460913d0000010611715576702c68af0bb14000090565b670429d069189e00009056fea2646970667358221220c9bf945717b41b8de42edad1314e9842092ffba1f88483e151c2fe244bb5660d64736f6c63430008170033","linkReferences":{}},"methodIdentifiers":{"BUFFER_RATIO_1()":"e7259801","BUFFER_RATIO_2()":"87492d3e","BUFFER_RATIO_3()":"786ab30c","LEVERAGE_BUCKET_1_MAX()":"a23e48f5","LEVERAGE_BUCKET_2_MAX()":"34e3621a","LEVERAGE_BUCKET_3_MAX()":"6bab7cab","PRECISION()":"aaf5eb68","createPosition(address,bool,uint256,uint256,uint256,int256)":"63b64a18","engine()":"c9d4623f","factory()":"c45a0155","getEffectiveOpenFeeRate()":"be515fcb","getLiquidationBufferRatio(uint256)":"db24e2a2","getPosition(uint256)":"eb02c301","isPositionOpen(uint256)":"a32fce3b","market()":"80f55605","nextPositionId()":"899346c7","positions(uint256)":"99fbab88","setEngine(address)":"0e830e49","simulateEquityIfClosed(uint256)":"bc5b83d2","updatePositionStatus(uint256,uint8,int256)":"e02cea03"},"id":35}